{
  "contractName": "SetTeam",
  "abi": [
    {
      "inputs": [],
      "stateMutability": "nonpayable",
      "type": "constructor"
    },
    {
      "inputs": [],
      "name": "INVALID_INDEX",
      "outputs": [
        {
          "internalType": "uint256",
          "name": "",
          "type": "uint256"
        }
      ],
      "stateMutability": "view",
      "type": "function"
    },
    {
      "inputs": [
        {
          "internalType": "address",
          "name": "_address",
          "type": "address"
        }
      ],
      "name": "balanceOf",
      "outputs": [
        {
          "internalType": "uint256",
          "name": "",
          "type": "uint256"
        }
      ],
      "stateMutability": "view",
      "type": "function"
    },
    {
      "inputs": [],
      "name": "decimals",
      "outputs": [
        {
          "internalType": "uint8",
          "name": "",
          "type": "uint8"
        }
      ],
      "stateMutability": "view",
      "type": "function"
    },
    {
      "inputs": [
        {
          "internalType": "address",
          "name": "_address",
          "type": "address"
        }
      ],
      "name": "getUserVotedTeamIndex",
      "outputs": [
        {
          "internalType": "uint256",
          "name": "",
          "type": "uint256"
        }
      ],
      "stateMutability": "view",
      "type": "function"
    },
    {
      "inputs": [],
      "name": "logIn",
      "outputs": [],
      "stateMutability": "nonpayable",
      "type": "function"
    },
    {
      "inputs": [],
      "name": "name",
      "outputs": [
        {
          "internalType": "string",
          "name": "",
          "type": "string"
        }
      ],
      "stateMutability": "view",
      "type": "function"
    },
    {
      "inputs": [],
      "name": "owner",
      "outputs": [
        {
          "internalType": "address",
          "name": "",
          "type": "address"
        }
      ],
      "stateMutability": "view",
      "type": "function"
    },
    {
      "inputs": [],
      "name": "showOwner",
      "outputs": [
        {
          "internalType": "address",
          "name": "",
          "type": "address"
        }
      ],
      "stateMutability": "view",
      "type": "function"
    },
    {
      "inputs": [],
      "name": "symbol",
      "outputs": [
        {
          "internalType": "string",
          "name": "",
          "type": "string"
        }
      ],
      "stateMutability": "view",
      "type": "function"
    },
    {
      "inputs": [
        {
          "internalType": "string",
          "name": "",
          "type": "string"
        }
      ],
      "name": "teamIndex",
      "outputs": [
        {
          "internalType": "uint256",
          "name": "",
          "type": "uint256"
        }
      ],
      "stateMutability": "view",
      "type": "function"
    },
    {
      "inputs": [
        {
          "internalType": "uint256",
          "name": "",
          "type": "uint256"
        }
      ],
      "name": "teamWeight",
      "outputs": [
        {
          "internalType": "uint256",
          "name": "",
          "type": "uint256"
        }
      ],
      "stateMutability": "view",
      "type": "function"
    },
    {
      "inputs": [
        {
          "internalType": "uint256",
          "name": "",
          "type": "uint256"
        }
      ],
      "name": "teams",
      "outputs": [
        {
          "internalType": "string",
          "name": "teamName",
          "type": "string"
        },
        {
          "internalType": "string",
          "name": "top",
          "type": "string"
        },
        {
          "internalType": "string",
          "name": "jug",
          "type": "string"
        },
        {
          "internalType": "string",
          "name": "mid",
          "type": "string"
        },
        {
          "internalType": "string",
          "name": "adc",
          "type": "string"
        },
        {
          "internalType": "string",
          "name": "sup",
          "type": "string"
        }
      ],
      "stateMutability": "view",
      "type": "function"
    },
    {
      "inputs": [],
      "name": "totalSupply",
      "outputs": [
        {
          "internalType": "uint256",
          "name": "",
          "type": "uint256"
        }
      ],
      "stateMutability": "view",
      "type": "function"
    },
    {
      "inputs": [
        {
          "internalType": "address",
          "name": "_address",
          "type": "address"
        }
      ],
      "name": "voteBalanceOf",
      "outputs": [
        {
          "internalType": "uint256",
          "name": "",
          "type": "uint256"
        }
      ],
      "stateMutability": "view",
      "type": "function"
    },
    {
      "inputs": [
        {
          "internalType": "string",
          "name": "_teamName",
          "type": "string"
        },
        {
          "internalType": "string",
          "name": "_top",
          "type": "string"
        },
        {
          "internalType": "string",
          "name": "_jug",
          "type": "string"
        },
        {
          "internalType": "string",
          "name": "_mid",
          "type": "string"
        },
        {
          "internalType": "string",
          "name": "_adc",
          "type": "string"
        },
        {
          "internalType": "string",
          "name": "_sup",
          "type": "string"
        }
      ],
      "name": "setTeam",
      "outputs": [],
      "stateMutability": "nonpayable",
      "type": "function"
    },
    {
      "inputs": [
        {
          "internalType": "string",
          "name": "_teamName",
          "type": "string"
        }
      ],
      "name": "getTeamDataByTeamName",
      "outputs": [
        {
          "internalType": "string",
          "name": "",
          "type": "string"
        },
        {
          "internalType": "string",
          "name": "",
          "type": "string"
        },
        {
          "internalType": "string",
          "name": "",
          "type": "string"
        },
        {
          "internalType": "string",
          "name": "",
          "type": "string"
        },
        {
          "internalType": "string",
          "name": "",
          "type": "string"
        },
        {
          "internalType": "string",
          "name": "",
          "type": "string"
        }
      ],
      "stateMutability": "view",
      "type": "function"
    },
    {
      "inputs": [
        {
          "internalType": "string",
          "name": "_teamName",
          "type": "string"
        }
      ],
      "name": "getTeamWeightByTeamName",
      "outputs": [
        {
          "internalType": "uint256",
          "name": "",
          "type": "uint256"
        }
      ],
      "stateMutability": "view",
      "type": "function"
    }
  ],
  "bytecode": "0x608060405269d3c21bcecceda10000005f55601260015f6101000a81548160ff021916908360ff1602179055506040518060400160405280600981526020017f6c6f6c20746f6b656e000000000000000000000000000000000000000000000081525060029081620000729190620003a9565b506040518060400160405280600281526020017f6c7400000000000000000000000000000000000000000000000000000000000081525060039081620000b99190620003a9565b506064600755600754600b555f600c555f600d55348015620000d9575f80fd5b503360045f6101000a81548173ffffffffffffffffffffffffffffffffffffffff021916908373ffffffffffffffffffffffffffffffffffffffff160217905550600754600a6040516200012d90620004be565b908152602001604051809103902081905550620004d4565b5f81519050919050565b7f4e487b71000000000000000000000000000000000000000000000000000000005f52604160045260245ffd5b7f4e487b71000000000000000000000000000000000000000000000000000000005f52602260045260245ffd5b5f6002820490506001821680620001c157607f821691505b602082108103620001d757620001d66200017c565b5b50919050565b5f819050815f5260205f209050919050565b5f6020601f8301049050919050565b5f82821b905092915050565b5f600883026200023b7fffffffffffffffffffffffffffffffffffffffffffffffffffffffffffffffff82620001fe565b620002478683620001fe565b95508019841693508086168417925050509392505050565b5f819050919050565b5f819050919050565b5f620002916200028b62000285846200025f565b62000268565b6200025f565b9050919050565b5f819050919050565b620002ac8362000271565b620002c4620002bb8262000298565b8484546200020a565b825550505050565b5f90565b620002da620002cc565b620002e7818484620002a1565b505050565b5b818110156200030e57620003025f82620002d0565b600181019050620002ed565b5050565b601f8211156200035d576200032781620001dd565b6200033284620001ef565b8101602085101562000342578190505b6200035a6200035185620001ef565b830182620002ec565b50505b505050565b5f82821c905092915050565b5f6200037f5f198460080262000362565b1980831691505092915050565b5f6200039983836200036e565b9150826002028217905092915050565b620003b48262000145565b67ffffffffffffffff811115620003d057620003cf6200014f565b5b620003dc8254620001a9565b620003e982828562000312565b5f60209050601f8311600181146200041f575f84156200040a578287015190505b6200041685826200038c565b86555062000485565b601f1984166200042f86620001dd565b5f5b82811015620004585784890151825560018201915060208501945060208101905062000431565b8683101562000478578489015162000474601f8916826200036e565b8355505b6001600288020188555050505b505050505050565b5f81905092915050565b50565b5f620004a75f836200048d565b9150620004b48262000497565b5f82019050919050565b5f620004ca826200049a565b9150819050919050565b611e9f80620004e25f395ff3fe608060405234801561000f575f80fd5b5060043610610109575f3560e01c806370a08231116100a057806395d89b411161006f57806395d89b41146102e9578063ded9468814610307578063dfb826b114610325578063ed5225ef14610355578063fc7d66671461037157610109565b806370a08231146102365780638262bafc1461026657806384ab8bb81461029b5780638da5cb5b146102cb57610109565b806334080a5d116100dc57806334080a5d14610197578063377b47a3146101c75780633ed2b77a146101d1578063548e0ae51461020657610109565b806306fdde031461010d57806318160ddd1461012b5780632d82ee8b14610149578063313ce56714610179575b5f80fd5b61011561038f565b604051610122919061134e565b60405180910390f35b61013361041b565b6040516101409190611386565b60405180910390f35b610163600480360381019061015e9190611411565b610420565b6040516101709190611386565b60405180910390f35b610181610486565b60405161018e9190611477565b60405180910390f35b6101b160048036038101906101ac91906115b8565b610498565b6040516101be9190611386565b60405180910390f35b6101cf6104c5565b005b6101eb60048036038101906101e69190611629565b6106e2565b6040516101fd96959493929190611654565b60405180910390f35b610220600480360381019061021b9190611737565b610a4d565b60405161022d9190611386565b60405180910390f35b610250600480360381019061024b9190611737565b610a96565b60405161025d9190611386565b60405180910390f35b610280600480360381019061027b9190611411565b610ade565b60405161029296959493929190611654565b60405180910390f35b6102b560048036038101906102b09190611737565b610f3c565b6040516102c29190611386565b60405180910390f35b6102d3610f85565b6040516102e09190611771565b60405180910390f35b6102f1610faa565b6040516102fe919061134e565b60405180910390f35b61030f611036565b60405161031c9190611771565b60405180910390f35b61033f600480360381019061033a9190611629565b61105e565b60405161034c9190611386565b60405180910390f35b61036f600480360381019061036a919061178a565b611073565b005b610379611297565b6040516103869190611386565b60405180910390f35b6002805461039c906118e8565b80601f01602080910402602001604051908101604052809291908181526020018280546103c8906118e8565b80156104135780601f106103ea57610100808354040283529160200191610413565b820191905f5260205f20905b8154815290600101906020018083116103f657829003601f168201915b505050505081565b5f5481565b5f60095f61047085858080601f0160208091040260200160405190810160405280939291908181526020018383808284375f81840152601f19601f8201169050808301925050505050505061129d565b81526020019081526020015f2054905092915050565b60015f9054906101000a900460ff1681565b600a818051602081018201805184825260208301602085012081835280955050505050505f915090505481565b60065f3373ffffffffffffffffffffffffffffffffffffffff1673ffffffffffffffffffffffffffffffffffffffff1681526020019081526020015f205f9054906101000a900460ff161561054f576040517f08c379a000000000000000000000000000000000000000000000000000000000815260040161054690611962565b60405180910390fd5b678ac7230489e800005f54101561059b576040517f08c379a0000000000000000000000000000000000000000000000000000000008152600401610592906119ca565b60405180910390fd5b600160065f3373ffffffffffffffffffffffffffffffffffffffff1673ffffffffffffffffffffffffffffffffffffffff1681526020019081526020015f205f6101000a81548160ff0219169083151502179055506040518060a00160405280678ac7230489e8000081526020016001151581526020015f1515815260200160075481526020015f81525060055f3373ffffffffffffffffffffffffffffffffffffffff1673ffffffffffffffffffffffffffffffffffffffff1681526020019081526020015f205f820151815f01556020820151816001015f6101000a81548160ff02191690831515021790555060408201518160010160016101000a81548160ff0219169083151502179055506060820151816002015560808201518160030155905050678ac7230489e800005f808282546106d99190611a15565b92505081905550565b600881815481106106f1575f80fd5b905f5260205f2090600602015f91509050805f018054610710906118e8565b80601f016020809104026020016040519081016040528092919081815260200182805461073c906118e8565b80156107875780601f1061075e57610100808354040283529160200191610787565b820191905f5260205f20905b81548152906001019060200180831161076a57829003601f168201915b50505050509080600101805461079c906118e8565b80601f01602080910402602001604051908101604052809291908181526020018280546107c8906118e8565b80156108135780601f106107ea57610100808354040283529160200191610813565b820191905f5260205f20905b8154815290600101906020018083116107f657829003601f168201915b505050505090806002018054610828906118e8565b80601f0160208091040260200160405190810160405280929190818152602001828054610854906118e8565b801561089f5780601f106108765761010080835404028352916020019161089f565b820191905f5260205f20905b81548152906001019060200180831161088257829003601f168201915b5050505050908060030180546108b4906118e8565b80601f01602080910402602001604051908101604052809291908181526020018280546108e0906118e8565b801561092b5780601f106109025761010080835404028352916020019161092b565b820191905f5260205f20905b81548152906001019060200180831161090e57829003601f168201915b505050505090806004018054610940906118e8565b80601f016020809104026020016040519081016040528092919081815260200182805461096c906118e8565b80156109b75780601f1061098e576101008083540402835291602001916109b7565b820191905f5260205f20905b81548152906001019060200180831161099a57829003601f168201915b5050505050908060050180546109cc906118e8565b80601f01602080910402602001604051908101604052809291908181526020018280546109f8906118e8565b8015610a435780601f10610a1a57610100808354040283529160200191610a43565b820191905f5260205f20905b815481529060010190602001808311610a2657829003601f168201915b5050505050905086565b5f60055f8373ffffffffffffffffffffffffffffffffffffffff1673ffffffffffffffffffffffffffffffffffffffff1681526020019081526020015f20600201549050919050565b5f60055f8373ffffffffffffffffffffffffffffffffffffffff1673ffffffffffffffffffffffffffffffffffffffff1681526020019081526020015f205f01549050919050565b6060806060806060805f610b3489898080601f0160208091040260200160405190810160405280939291908181526020018383808284375f81840152601f19601f8201169050808301925050505050505061129d565b90506007548103610b7a576040517f08c379a0000000000000000000000000000000000000000000000000000000008152600401610b7190611a92565b60405180910390fd5b5f60088281548110610b8f57610b8e611ab0565b5b905f5260205f2090600602016040518060c00160405290815f82018054610bb5906118e8565b80601f0160208091040260200160405190810160405280929190818152602001828054610be1906118e8565b8015610c2c5780601f10610c0357610100808354040283529160200191610c2c565b820191905f5260205f20905b815481529060010190602001808311610c0f57829003601f168201915b50505050508152602001600182018054610c45906118e8565b80601f0160208091040260200160405190810160405280929190818152602001828054610c71906118e8565b8015610cbc5780601f10610c9357610100808354040283529160200191610cbc565b820191905f5260205f20905b815481529060010190602001808311610c9f57829003601f168201915b50505050508152602001600282018054610cd5906118e8565b80601f0160208091040260200160405190810160405280929190818152602001828054610d01906118e8565b8015610d4c5780601f10610d2357610100808354040283529160200191610d4c565b820191905f5260205f20905b815481529060010190602001808311610d2f57829003601f168201915b50505050508152602001600382018054610d65906118e8565b80601f0160208091040260200160405190810160405280929190818152602001828054610d91906118e8565b8015610ddc5780601f10610db357610100808354040283529160200191610ddc565b820191905f5260205f20905b815481529060010190602001808311610dbf57829003601f168201915b50505050508152602001600482018054610df5906118e8565b80601f0160208091040260200160405190810160405280929190818152602001828054610e21906118e8565b8015610e6c5780601f10610e4357610100808354040283529160200191610e6c565b820191905f5260205f20905b815481529060010190602001808311610e4f57829003601f168201915b50505050508152602001600582018054610e85906118e8565b80601f0160208091040260200160405190810160405280929190818152602001828054610eb1906118e8565b8015610efc5780601f10610ed357610100808354040283529160200191610efc565b820191905f5260205f20905b815481529060010190602001808311610edf57829003601f168201915b5050505050815250509050805f015181602001518260400151836060015184608001518560a0015197509750975097509750975050509295509295509295565b5f60055f8373ffffffffffffffffffffffffffffffffffffffff1673ffffffffffffffffffffffffffffffffffffffff1681526020019081526020015f20600301549050919050565b60045f9054906101000a900473ffffffffffffffffffffffffffffffffffffffff1681565b60038054610fb7906118e8565b80601f0160208091040260200160405190810160405280929190818152602001828054610fe3906118e8565b801561102e5780601f106110055761010080835404028352916020019161102e565b820191905f5260205f20905b81548152906001019060200180831161101157829003601f168201915b505050505081565b5f60045f9054906101000a900473ffffffffffffffffffffffffffffffffffffffff16905090565b6009602052805f5260405f205f915090505481565b60045f9054906101000a900473ffffffffffffffffffffffffffffffffffffffff1673ffffffffffffffffffffffffffffffffffffffff163373ffffffffffffffffffffffffffffffffffffffff16146110cb575f80fd5b5f86511161110e576040517f08c379a000000000000000000000000000000000000000000000000000000000815260040161110590611b27565b60405180910390fd5b5f600a8760405161111f9190611b7f565b9081526020016040518091039020541461116e576040517f08c379a000000000000000000000000000000000000000000000000000000000815260040161116590611bdf565b60405180910390fd5b5f6040518060c001604052808881526020018781526020018681526020018581526020018481526020018381525090505f6008805490509050600882908060018154018082558091505060019003905f5260205f2090600602015f909190919091505f820151815f0190816111e39190611d9a565b5060208201518160010190816111f99190611d9a565b50604082015181600201908161120f9190611d9a565b5060608201518160030190816112259190611d9a565b50608082015181600401908161123b9190611d9a565b5060a08201518160050190816112519190611d9a565b50505080600a896040516112659190611b7f565b9081526020016040518091039020819055505f60095f8381526020019081526020015f20819055505050505050505050565b60075481565b5f600a826040516112ae9190611b7f565b9081526020016040518091039020549050919050565b5f81519050919050565b5f82825260208201905092915050565b5f5b838110156112fb5780820151818401526020810190506112e0565b5f8484015250505050565b5f601f19601f8301169050919050565b5f611320826112c4565b61132a81856112ce565b935061133a8185602086016112de565b61134381611306565b840191505092915050565b5f6020820190508181035f8301526113668184611316565b905092915050565b5f819050919050565b6113808161136e565b82525050565b5f6020820190506113995f830184611377565b92915050565b5f604051905090565b5f80fd5b5f80fd5b5f80fd5b5f80fd5b5f80fd5b5f8083601f8401126113d1576113d06113b0565b5b8235905067ffffffffffffffff8111156113ee576113ed6113b4565b5b60208301915083600182028301111561140a576114096113b8565b5b9250929050565b5f8060208385031215611427576114266113a8565b5b5f83013567ffffffffffffffff811115611444576114436113ac565b5b611450858286016113bc565b92509250509250929050565b5f60ff82169050919050565b6114718161145c565b82525050565b5f60208201905061148a5f830184611468565b92915050565b5f80fd5b7f4e487b71000000000000000000000000000000000000000000000000000000005f52604160045260245ffd5b6114ca82611306565b810181811067ffffffffffffffff821117156114e9576114e8611494565b5b80604052505050565b5f6114fb61139f565b905061150782826114c1565b919050565b5f67ffffffffffffffff82111561152657611525611494565b5b61152f82611306565b9050602081019050919050565b828183375f83830152505050565b5f61155c6115578461150c565b6114f2565b90508281526020810184848401111561157857611577611490565b5b61158384828561153c565b509392505050565b5f82601f83011261159f5761159e6113b0565b5b81356115af84826020860161154a565b91505092915050565b5f602082840312156115cd576115cc6113a8565b5b5f82013567ffffffffffffffff8111156115ea576115e96113ac565b5b6115f68482850161158b565b91505092915050565b6116088161136e565b8114611612575f80fd5b50565b5f81359050611623816115ff565b92915050565b5f6020828403121561163e5761163d6113a8565b5b5f61164b84828501611615565b91505092915050565b5f60c0820190508181035f83015261166c8189611316565b905081810360208301526116808188611316565b905081810360408301526116948187611316565b905081810360608301526116a88186611316565b905081810360808301526116bc8185611316565b905081810360a08301526116d08184611316565b9050979650505050505050565b5f73ffffffffffffffffffffffffffffffffffffffff82169050919050565b5f611706826116dd565b9050919050565b611716816116fc565b8114611720575f80fd5b50565b5f813590506117318161170d565b92915050565b5f6020828403121561174c5761174b6113a8565b5b5f61175984828501611723565b91505092915050565b61176b816116fc565b82525050565b5f6020820190506117845f830184611762565b92915050565b5f805f805f8060c087890312156117a4576117a36113a8565b5b5f87013567ffffffffffffffff8111156117c1576117c06113ac565b5b6117cd89828a0161158b565b965050602087013567ffffffffffffffff8111156117ee576117ed6113ac565b5b6117fa89828a0161158b565b955050604087013567ffffffffffffffff81111561181b5761181a6113ac565b5b61182789828a0161158b565b945050606087013567ffffffffffffffff811115611848576118476113ac565b5b61185489828a0161158b565b935050608087013567ffffffffffffffff811115611875576118746113ac565b5b61188189828a0161158b565b92505060a087013567ffffffffffffffff8111156118a2576118a16113ac565b5b6118ae89828a0161158b565b9150509295509295509295565b7f4e487b71000000000000000000000000000000000000000000000000000000005f52602260045260245ffd5b5f60028204905060018216806118ff57607f821691505b602082108103611912576119116118bb565b5b50919050565b7f596f75206861766520616c7265616479207265676973746572656400000000005f82015250565b5f61194c601b836112ce565b915061195782611918565b602082019050919050565b5f6020820190508181035f83015261197981611940565b9050919050565b7f4e6f7420656e6f75676820746f74616c537570706c79210000000000000000005f82015250565b5f6119b46017836112ce565b91506119bf82611980565b602082019050919050565b5f6020820190508181035f8301526119e1816119a8565b9050919050565b7f4e487b71000000000000000000000000000000000000000000000000000000005f52601160045260245ffd5b5f611a1f8261136e565b9150611a2a8361136e565b9250828203905081811115611a4257611a416119e8565b5b92915050565b7f496e76616c6964207465616d206e616d650000000000000000000000000000005f82015250565b5f611a7c6011836112ce565b9150611a8782611a48565b602082019050919050565b5f6020820190508181035f830152611aa981611a70565b9050919050565b7f4e487b71000000000000000000000000000000000000000000000000000000005f52603260045260245ffd5b7f5465616d206e616d652063616e6e6f7420626520656d707479000000000000005f82015250565b5f611b116019836112ce565b9150611b1c82611add565b602082019050919050565b5f6020820190508181035f830152611b3e81611b05565b9050919050565b5f81905092915050565b5f611b59826112c4565b611b638185611b45565b9350611b738185602086016112de565b80840191505092915050565b5f611b8a8284611b4f565b915081905092915050565b7f5465616d206e616d6520616c72656164792065786973747300000000000000005f82015250565b5f611bc96018836112ce565b9150611bd482611b95565b602082019050919050565b5f6020820190508181035f830152611bf681611bbd565b9050919050565b5f819050815f5260205f209050919050565b5f6020601f8301049050919050565b5f82821b905092915050565b5f60088302611c597fffffffffffffffffffffffffffffffffffffffffffffffffffffffffffffffff82611c1e565b611c638683611c1e565b95508019841693508086168417925050509392505050565b5f819050919050565b5f611c9e611c99611c948461136e565b611c7b565b61136e565b9050919050565b5f819050919050565b611cb783611c84565b611ccb611cc382611ca5565b848454611c2a565b825550505050565b5f90565b611cdf611cd3565b611cea818484611cae565b505050565b5b81811015611d0d57611d025f82611cd7565b600181019050611cf0565b5050565b601f821115611d5257611d2381611bfd565b611d2c84611c0f565b81016020851015611d3b578190505b611d4f611d4785611c0f565b830182611cef565b50505b505050565b5f82821c905092915050565b5f611d725f1984600802611d57565b1980831691505092915050565b5f611d8a8383611d63565b9150826002028217905092915050565b611da3826112c4565b67ffffffffffffffff811115611dbc57611dbb611494565b5b611dc682546118e8565b611dd1828285611d11565b5f60209050601f831160018114611e02575f8415611df0578287015190505b611dfa8582611d7f565b865550611e61565b601f198416611e1086611bfd565b5f5b82811015611e3757848901518255600182019150602085019450602081019050611e12565b86831015611e545784890151611e50601f891682611d63565b8355505b6001600288020188555050505b50505050505056fea2646970667358221220f50d14257d0b226f5569e9ea501db98c7684670145e2be474e3b2ac6aeaff36d64736f6c63430008150033",
  "immutableReferences": {},
  "source": "// SPDX-License-Identifier: MIT\r\npragma solidity >=0.8.18 <0.9.0;\r\nimport './Token.sol';\r\n\r\n// SetTeam.sol\r\ncontract SetTeam is Token {\r\n    //  Team      gas ,   .\r\n    // react json    , \r\n    //  struct team data \r\n    struct Team {\r\n        // Name of the team\r\n        string teamName;\r\n        // players\r\n        string top;\r\n        string jug;\r\n        string mid;\r\n        string adc;\r\n        string sup;\r\n    }\r\n    Team[] public teams;\r\n    mapping(uint => uint) public teamWeight;    // Team Index -> team Weight\r\n    // Team Name -> Team index(setTeam   default 0    )\r\n    // ex. ['T1', 'Gen.G', 'KT'..]   0, 1, 2 index \r\n    // mapping teamIndex 1, 2, 3 return.     -1    \r\n    mapping(string => uint) public teamIndex;   \r\n    \r\n\r\n\r\n    // the team index which have won   -> updated by Vote.sol function gameEnd()\r\n    // default : invalid index\r\n    uint winnerTeamIndex = INVALID_INDEX;\r\n    // weigth of the winner. for calculation of ratio(\"before\" Vote.sol function gameEnd()) \r\n    uint bettingTotalBalance = 0;   \r\n    uint winnerTeamPureBalance = 0;   \r\n\r\n    // modifier which can allow only owner to do something\r\n    modifier onlyOwner() {\r\n        require(msg.sender == owner);\r\n        _;\r\n    }\r\n\r\n    constructor() {\r\n        teamIndex[\"\"] = INVALID_INDEX;\r\n    }\r\n\r\n    function setTeam(string memory _teamName, string memory _top, string memory _jug, string memory _mid, string memory _adc, string memory _sup) external onlyOwner {\r\n        // Check if the team name is not empty\r\n        require(bytes(_teamName).length > 0, \"Team name cannot be empty\");\r\n\r\n        // Check if the team name is unique (not already added)\r\n        require(teamIndex[_teamName] == 0, \"Team name already exists\");\r\n\r\n        // Create a new Team struct and add it to the teams array\r\n        Team memory newTeam = Team({\r\n            teamName: _teamName,\r\n            top: _top,\r\n            jug: _jug,\r\n            mid: _mid,\r\n            adc: _adc,\r\n            sup: _sup\r\n        });\r\n\r\n        uint _teamIndex = teams.length;\r\n        teams.push(newTeam);\r\n\r\n        // Update the team index mapping with the new team index\r\n        teamIndex[_teamName] = _teamIndex;\r\n        // Set the team weight to 0 initially\r\n        teamWeight[_teamIndex] = 0;\r\n    }\r\n\r\n    // for Vote.sol, get the index of the team\r\n    function getTeamIndexByTeamName(string memory _teamName) internal view returns (uint) {\r\n        return teamIndex[_teamName];\r\n    }\r\n\r\n    // for React, to get the data of the team\r\n    function getTeamDataByTeamName(string calldata  _teamName) external view returns (string memory, string memory, string memory, string memory, string memory, string memory) {\r\n        uint _teamIndex = getTeamIndexByTeamName(_teamName);\r\n        require(_teamIndex != INVALID_INDEX, \"Invalid team name\"); // check name\r\n\r\n        Team memory team = teams[_teamIndex];\r\n        return (team.teamName, team.top, team.jug, team.mid, team.adc, team.sup);\r\n    }\r\n\r\n    function getTeamWeightByTeamName(string calldata _teamName) external view returns (uint) {\r\n        return teamWeight[getTeamIndexByTeamName(_teamName)];\r\n    }\r\n}\r\n",
  "sourcePath": "C:\\Users\\qww93\\Desktop\\vote_dapp\\vote-lck\\src\\contracts\\SetTeam.sol",
  "compiler": {
    "name": "solc",
    "version": "0.8.21+commit.d9974bed.Emscripten.clang"
  },
  "schemaVersion": "3.4.14",
  "updatedAt": "2023-07-26T12:40:28.090Z",
  "devdoc": {
    "kind": "dev",
    "methods": {},
    "version": 1
  },
  "userdoc": {
    "kind": "user",
    "methods": {},
    "version": 1
  }
}