{
  "contractName": "Token",
  "abi": [
    {
      "inputs": [],
      "stateMutability": "nonpayable",
      "type": "constructor"
    },
    {
      "inputs": [],
      "name": "INVALID_INDEX",
      "outputs": [
        {
          "internalType": "uint256",
          "name": "",
          "type": "uint256"
        }
      ],
      "stateMutability": "view",
      "type": "function"
    },
    {
      "inputs": [],
      "name": "decimals",
      "outputs": [
        {
          "internalType": "uint8",
          "name": "",
          "type": "uint8"
        }
      ],
      "stateMutability": "view",
      "type": "function"
    },
    {
      "inputs": [],
      "name": "name",
      "outputs": [
        {
          "internalType": "string",
          "name": "",
          "type": "string"
        }
      ],
      "stateMutability": "view",
      "type": "function"
    },
    {
      "inputs": [],
      "name": "owner",
      "outputs": [
        {
          "internalType": "address",
          "name": "",
          "type": "address"
        }
      ],
      "stateMutability": "view",
      "type": "function"
    },
    {
      "inputs": [],
      "name": "symbol",
      "outputs": [
        {
          "internalType": "string",
          "name": "",
          "type": "string"
        }
      ],
      "stateMutability": "view",
      "type": "function"
    },
    {
      "inputs": [],
      "name": "totalSupply",
      "outputs": [
        {
          "internalType": "uint256",
          "name": "",
          "type": "uint256"
        }
      ],
      "stateMutability": "view",
      "type": "function"
    },
    {
      "inputs": [
        {
          "internalType": "address",
          "name": "_address",
          "type": "address"
        }
      ],
      "name": "balanceOf",
      "outputs": [
        {
          "internalType": "uint256",
          "name": "",
          "type": "uint256"
        }
      ],
      "stateMutability": "view",
      "type": "function"
    },
    {
      "inputs": [
        {
          "internalType": "address",
          "name": "_address",
          "type": "address"
        }
      ],
      "name": "voteBalanceOf",
      "outputs": [
        {
          "internalType": "uint256",
          "name": "",
          "type": "uint256"
        }
      ],
      "stateMutability": "view",
      "type": "function"
    },
    {
      "inputs": [
        {
          "internalType": "address",
          "name": "_address",
          "type": "address"
        }
      ],
      "name": "getUserVotedTeamIndex",
      "outputs": [
        {
          "internalType": "uint256",
          "name": "",
          "type": "uint256"
        }
      ],
      "stateMutability": "view",
      "type": "function"
    },
    {
      "inputs": [],
      "name": "logIn",
      "outputs": [],
      "stateMutability": "nonpayable",
      "type": "function"
    },
    {
      "inputs": [],
      "name": "showOwner",
      "outputs": [
        {
          "internalType": "address",
          "name": "",
          "type": "address"
        }
      ],
      "stateMutability": "view",
      "type": "function"
    }
  ],
  "bytecode": "0x608060405269d3c21bcecceda10000005f55601260015f6101000a81548160ff021916908360ff1602179055506040518060400160405280600981526020017f6c6f6c20746f6b656e00000000000000000000000000000000000000000000008152506002908162000072919062000376565b506040518060400160405280600281526020017f6c7400000000000000000000000000000000000000000000000000000000000081525060039081620000b9919062000376565b506064600755348015620000cb575f80fd5b503360045f6101000a81548173ffffffffffffffffffffffffffffffffffffffff021916908373ffffffffffffffffffffffffffffffffffffffff1602179055506200045a565b5f81519050919050565b7f4e487b71000000000000000000000000000000000000000000000000000000005f52604160045260245ffd5b7f4e487b71000000000000000000000000000000000000000000000000000000005f52602260045260245ffd5b5f60028204905060018216806200018e57607f821691505b602082108103620001a457620001a362000149565b5b50919050565b5f819050815f5260205f209050919050565b5f6020601f8301049050919050565b5f82821b905092915050565b5f60088302620002087fffffffffffffffffffffffffffffffffffffffffffffffffffffffffffffffff82620001cb565b620002148683620001cb565b95508019841693508086168417925050509392505050565b5f819050919050565b5f819050919050565b5f6200025e6200025862000252846200022c565b62000235565b6200022c565b9050919050565b5f819050919050565b62000279836200023e565b62000291620002888262000265565b848454620001d7565b825550505050565b5f90565b620002a762000299565b620002b48184846200026e565b505050565b5b81811015620002db57620002cf5f826200029d565b600181019050620002ba565b5050565b601f8211156200032a57620002f481620001aa565b620002ff84620001bc565b810160208510156200030f578190505b620003276200031e85620001bc565b830182620002b9565b50505b505050565b5f82821c905092915050565b5f6200034c5f19846008026200032f565b1980831691505092915050565b5f6200036683836200033b565b9150826002028217905092915050565b620003818262000112565b67ffffffffffffffff8111156200039d576200039c6200011c565b5b620003a9825462000176565b620003b6828285620002df565b5f60209050601f831160018114620003ec575f8415620003d7578287015190505b620003e3858262000359565b86555062000452565b601f198416620003fc86620001aa565b5f5b828110156200042557848901518255600182019150602085019450602081019050620003fe565b8683101562000445578489015162000441601f8916826200033b565b8355505b6001600288020188555050505b505050505050565b610a1380620004685f395ff3fe608060405234801561000f575f80fd5b50600436106100a7575f3560e01c806370a082311161006f57806370a082311461013f57806384ab8bb81461016f5780638da5cb5b1461019f57806395d89b41146101bd578063ded94688146101db578063fc7d6667146101f9576100a7565b806306fdde03146100ab57806318160ddd146100c9578063313ce567146100e7578063377b47a314610105578063548e0ae51461010f575b5f80fd5b6100b3610217565b6040516100c0919061071a565b60405180910390f35b6100d16102a3565b6040516100de9190610752565b60405180910390f35b6100ef6102a8565b6040516100fc9190610786565b60405180910390f35b61010d6102ba565b005b610129600480360381019061012491906107fd565b6104d7565b6040516101369190610752565b60405180910390f35b610159600480360381019061015491906107fd565b610520565b6040516101669190610752565b60405180910390f35b610189600480360381019061018491906107fd565b610568565b6040516101969190610752565b60405180910390f35b6101a76105b1565b6040516101b49190610837565b60405180910390f35b6101c56105d6565b6040516101d2919061071a565b60405180910390f35b6101e3610662565b6040516101f09190610837565b60405180910390f35b61020161068a565b60405161020e9190610752565b60405180910390f35b600280546102249061087d565b80601f01602080910402602001604051908101604052809291908181526020018280546102509061087d565b801561029b5780601f106102725761010080835404028352916020019161029b565b820191905f5260205f20905b81548152906001019060200180831161027e57829003601f168201915b505050505081565b5f5481565b60015f9054906101000a900460ff1681565b60065f3373ffffffffffffffffffffffffffffffffffffffff1673ffffffffffffffffffffffffffffffffffffffff1681526020019081526020015f205f9054906101000a900460ff1615610344576040517f08c379a000000000000000000000000000000000000000000000000000000000815260040161033b906108f7565b60405180910390fd5b678ac7230489e800005f541015610390576040517f08c379a00000000000000000000000000000000000000000000000000000000081526004016103879061095f565b60405180910390fd5b600160065f3373ffffffffffffffffffffffffffffffffffffffff1673ffffffffffffffffffffffffffffffffffffffff1681526020019081526020015f205f6101000a81548160ff0219169083151502179055506040518060a00160405280678ac7230489e8000081526020016001151581526020015f1515815260200160075481526020015f81525060055f3373ffffffffffffffffffffffffffffffffffffffff1673ffffffffffffffffffffffffffffffffffffffff1681526020019081526020015f205f820151815f01556020820151816001015f6101000a81548160ff02191690831515021790555060408201518160010160016101000a81548160ff0219169083151502179055506060820151816002015560808201518160030155905050678ac7230489e800005f808282546104ce91906109aa565b92505081905550565b5f60055f8373ffffffffffffffffffffffffffffffffffffffff1673ffffffffffffffffffffffffffffffffffffffff1681526020019081526020015f20600201549050919050565b5f60055f8373ffffffffffffffffffffffffffffffffffffffff1673ffffffffffffffffffffffffffffffffffffffff1681526020019081526020015f205f01549050919050565b5f60055f8373ffffffffffffffffffffffffffffffffffffffff1673ffffffffffffffffffffffffffffffffffffffff1681526020019081526020015f20600301549050919050565b60045f9054906101000a900473ffffffffffffffffffffffffffffffffffffffff1681565b600380546105e39061087d565b80601f016020809104026020016040519081016040528092919081815260200182805461060f9061087d565b801561065a5780601f106106315761010080835404028352916020019161065a565b820191905f5260205f20905b81548152906001019060200180831161063d57829003601f168201915b505050505081565b5f60045f9054906101000a900473ffffffffffffffffffffffffffffffffffffffff16905090565b60075481565b5f81519050919050565b5f82825260208201905092915050565b5f5b838110156106c75780820151818401526020810190506106ac565b5f8484015250505050565b5f601f19601f8301169050919050565b5f6106ec82610690565b6106f6818561069a565b93506107068185602086016106aa565b61070f816106d2565b840191505092915050565b5f6020820190508181035f83015261073281846106e2565b905092915050565b5f819050919050565b61074c8161073a565b82525050565b5f6020820190506107655f830184610743565b92915050565b5f60ff82169050919050565b6107808161076b565b82525050565b5f6020820190506107995f830184610777565b92915050565b5f80fd5b5f73ffffffffffffffffffffffffffffffffffffffff82169050919050565b5f6107cc826107a3565b9050919050565b6107dc816107c2565b81146107e6575f80fd5b50565b5f813590506107f7816107d3565b92915050565b5f602082840312156108125761081161079f565b5b5f61081f848285016107e9565b91505092915050565b610831816107c2565b82525050565b5f60208201905061084a5f830184610828565b92915050565b7f4e487b71000000000000000000000000000000000000000000000000000000005f52602260045260245ffd5b5f600282049050600182168061089457607f821691505b6020821081036108a7576108a6610850565b5b50919050565b7f596f75206861766520616c7265616479207265676973746572656400000000005f82015250565b5f6108e1601b8361069a565b91506108ec826108ad565b602082019050919050565b5f6020820190508181035f83015261090e816108d5565b9050919050565b7f4e6f7420656e6f75676820746f74616c537570706c79210000000000000000005f82015250565b5f61094960178361069a565b915061095482610915565b602082019050919050565b5f6020820190508181035f8301526109768161093d565b9050919050565b7f4e487b71000000000000000000000000000000000000000000000000000000005f52601160045260245ffd5b5f6109b48261073a565b91506109bf8361073a565b92508282039050818111156109d7576109d661097d565b5b9291505056fea2646970667358221220089aba341d086b805ecb7919f710ac39ba378f80bffbc69ca23fc956aa60040264736f6c63430008150033",
  "immutableReferences": {},
  "source": "// SPDX-License-Identifier: MIT\r\npragma solidity >=0.8.18 <0.9.0;\r\n// Token.sol\r\ncontract Token {\r\n    uint256 public totalSupply = 1000000 * (10 ** 18);\r\n    uint8 public decimals = 18;\r\n    string public name = 'lol token';\r\n    string public symbol = 'lt';\r\n    address public owner;\r\n\r\n    struct User {\r\n        uint256 balance;    // tokens\r\n        bool firstEnter;    // is it first try?\r\n        bool voted;         // true: already voted(default), false: have right to vote(by giveRightToVote())\r\n        uint teamIndex;     // the teamIndex where user have voted\r\n        uint voteBalance;   // the amount user have voted(not the Balance that goes back. according to ratio)\r\n    }\r\n\r\n\r\n    mapping(address => User) userData;          // get access to 'struct User' by address(ex. msg.sender)\r\n    mapping(address => bool) registeredUsers;   // To check the msg.sender has registered in this DApp(default : false)\r\n\r\n    uint public INVALID_INDEX = 100;\r\n\r\n    constructor()  {\r\n        owner = msg.sender;\r\n    }    \r\n\r\n    // get balance by address\r\n    function balanceOf(address _address) view public returns(uint) {\r\n        return userData[_address].balance;\r\n    }\r\n    // get vote balance by address\r\n    function voteBalanceOf(address _address) view public returns(uint) {\r\n        return userData[_address].voteBalance;\r\n    }\r\n    function getUserVotedTeamIndex(address _address) view public returns(uint) {\r\n        return userData[_address].teamIndex;\r\n    }\r\n\r\n\r\n    function logIn() public {\r\n        // Ensure the user doesn't exist already\r\n        // require the total Supply is enough to send to users\r\n        require(!registeredUsers[msg.sender], 'You have already registered');\r\n        require(totalSupply >= 10 * (10 ** 18), 'Not enough totalSupply!');\r\n        registeredUsers[msg.sender] = true;\r\n\r\n        // Create the new user\r\n        userData[msg.sender] = User({\r\n            balance: 10 * (10 ** 18),\r\n            firstEnter: true,\r\n            voted: false,\r\n            teamIndex: INVALID_INDEX,\r\n            voteBalance: 0\r\n        });\r\n        totalSupply -= 10 * (10 ** 18);\r\n    }\r\n\r\n    //  \r\n    function showOwner() public view returns(address) {     // for check the address of owner(just for experience)\r\n        return owner;\r\n    }\r\n}",
  "sourcePath": "C:\\Users\\qww93\\Desktop\\vote_dapp\\vote-lck\\src\\contracts\\Token.sol",
  "compiler": {
    "name": "solc",
    "version": "0.8.21+commit.d9974bed.Emscripten.clang"
  },
  "schemaVersion": "3.4.14",
  "updatedAt": "2023-07-26T12:40:28.104Z",
  "devdoc": {
    "kind": "dev",
    "methods": {},
    "version": 1
  },
  "userdoc": {
    "kind": "user",
    "methods": {},
    "version": 1
  }
}