{
  "contractName": "Vote",
  "abi": [
    {
      "inputs": [],
      "name": "INVALID_INDEX",
      "outputs": [
        {
          "internalType": "uint256",
          "name": "",
          "type": "uint256"
        }
      ],
      "stateMutability": "view",
      "type": "function"
    },
    {
      "inputs": [
        {
          "internalType": "address",
          "name": "_address",
          "type": "address"
        }
      ],
      "name": "balanceOf",
      "outputs": [
        {
          "internalType": "uint256",
          "name": "",
          "type": "uint256"
        }
      ],
      "stateMutability": "view",
      "type": "function"
    },
    {
      "inputs": [],
      "name": "decimals",
      "outputs": [
        {
          "internalType": "uint8",
          "name": "",
          "type": "uint8"
        }
      ],
      "stateMutability": "view",
      "type": "function"
    },
    {
      "inputs": [
        {
          "internalType": "string",
          "name": "_teamName",
          "type": "string"
        }
      ],
      "name": "getTeamDataByTeamName",
      "outputs": [
        {
          "internalType": "string",
          "name": "",
          "type": "string"
        },
        {
          "internalType": "string",
          "name": "",
          "type": "string"
        },
        {
          "internalType": "string",
          "name": "",
          "type": "string"
        },
        {
          "internalType": "string",
          "name": "",
          "type": "string"
        },
        {
          "internalType": "string",
          "name": "",
          "type": "string"
        },
        {
          "internalType": "string",
          "name": "",
          "type": "string"
        }
      ],
      "stateMutability": "view",
      "type": "function"
    },
    {
      "inputs": [
        {
          "internalType": "string",
          "name": "_teamName",
          "type": "string"
        }
      ],
      "name": "getTeamWeightByTeamName",
      "outputs": [
        {
          "internalType": "uint256",
          "name": "",
          "type": "uint256"
        }
      ],
      "stateMutability": "view",
      "type": "function"
    },
    {
      "inputs": [
        {
          "internalType": "address",
          "name": "_address",
          "type": "address"
        }
      ],
      "name": "getUserVotedTeamIndex",
      "outputs": [
        {
          "internalType": "uint256",
          "name": "",
          "type": "uint256"
        }
      ],
      "stateMutability": "view",
      "type": "function"
    },
    {
      "inputs": [],
      "name": "logIn",
      "outputs": [],
      "stateMutability": "nonpayable",
      "type": "function"
    },
    {
      "inputs": [],
      "name": "name",
      "outputs": [
        {
          "internalType": "string",
          "name": "",
          "type": "string"
        }
      ],
      "stateMutability": "view",
      "type": "function"
    },
    {
      "inputs": [],
      "name": "owner",
      "outputs": [
        {
          "internalType": "address",
          "name": "",
          "type": "address"
        }
      ],
      "stateMutability": "view",
      "type": "function"
    },
    {
      "inputs": [
        {
          "internalType": "string",
          "name": "_teamName",
          "type": "string"
        },
        {
          "internalType": "string",
          "name": "_top",
          "type": "string"
        },
        {
          "internalType": "string",
          "name": "_jug",
          "type": "string"
        },
        {
          "internalType": "string",
          "name": "_mid",
          "type": "string"
        },
        {
          "internalType": "string",
          "name": "_adc",
          "type": "string"
        },
        {
          "internalType": "string",
          "name": "_sup",
          "type": "string"
        }
      ],
      "name": "setTeam",
      "outputs": [],
      "stateMutability": "nonpayable",
      "type": "function"
    },
    {
      "inputs": [],
      "name": "showOwner",
      "outputs": [
        {
          "internalType": "address",
          "name": "",
          "type": "address"
        }
      ],
      "stateMutability": "view",
      "type": "function"
    },
    {
      "inputs": [],
      "name": "symbol",
      "outputs": [
        {
          "internalType": "string",
          "name": "",
          "type": "string"
        }
      ],
      "stateMutability": "view",
      "type": "function"
    },
    {
      "inputs": [
        {
          "internalType": "string",
          "name": "",
          "type": "string"
        }
      ],
      "name": "teamIndex",
      "outputs": [
        {
          "internalType": "uint256",
          "name": "",
          "type": "uint256"
        }
      ],
      "stateMutability": "view",
      "type": "function"
    },
    {
      "inputs": [
        {
          "internalType": "uint256",
          "name": "",
          "type": "uint256"
        }
      ],
      "name": "teamWeight",
      "outputs": [
        {
          "internalType": "uint256",
          "name": "",
          "type": "uint256"
        }
      ],
      "stateMutability": "view",
      "type": "function"
    },
    {
      "inputs": [
        {
          "internalType": "uint256",
          "name": "",
          "type": "uint256"
        }
      ],
      "name": "teams",
      "outputs": [
        {
          "internalType": "string",
          "name": "teamName",
          "type": "string"
        },
        {
          "internalType": "string",
          "name": "top",
          "type": "string"
        },
        {
          "internalType": "string",
          "name": "jug",
          "type": "string"
        },
        {
          "internalType": "string",
          "name": "mid",
          "type": "string"
        },
        {
          "internalType": "string",
          "name": "adc",
          "type": "string"
        },
        {
          "internalType": "string",
          "name": "sup",
          "type": "string"
        }
      ],
      "stateMutability": "view",
      "type": "function"
    },
    {
      "inputs": [],
      "name": "totalSupply",
      "outputs": [
        {
          "internalType": "uint256",
          "name": "",
          "type": "uint256"
        }
      ],
      "stateMutability": "view",
      "type": "function"
    },
    {
      "inputs": [
        {
          "internalType": "address",
          "name": "_address",
          "type": "address"
        }
      ],
      "name": "voteBalanceOf",
      "outputs": [
        {
          "internalType": "uint256",
          "name": "",
          "type": "uint256"
        }
      ],
      "stateMutability": "view",
      "type": "function"
    },
    {
      "inputs": [
        {
          "internalType": "uint256",
          "name": "_amount",
          "type": "uint256"
        },
        {
          "internalType": "string",
          "name": "_teamName",
          "type": "string"
        }
      ],
      "name": "vote",
      "outputs": [
        {
          "internalType": "bool",
          "name": "",
          "type": "bool"
        }
      ],
      "stateMutability": "nonpayable",
      "type": "function"
    },
    {
      "inputs": [
        {
          "internalType": "string",
          "name": "_teamNameWin",
          "type": "string"
        },
        {
          "internalType": "string",
          "name": "_teamNameLose",
          "type": "string"
        }
      ],
      "name": "gameEnd",
      "outputs": [
        {
          "internalType": "uint256",
          "name": "",
          "type": "uint256"
        }
      ],
      "stateMutability": "nonpayable",
      "type": "function"
    },
    {
      "inputs": [],
      "name": "returnBettingResult",
      "outputs": [],
      "stateMutability": "nonpayable",
      "type": "function"
    },
    {
      "inputs": [],
      "name": "returnBettingResultOver",
      "outputs": [],
      "stateMutability": "nonpayable",
      "type": "function"
    }
  ],
  "bytecode": "0x608060405269d3c21bcecceda10000005f55601260015f6101000a81548160ff021916908360ff1602179055506040518060400160405280600981526020017f6c6f6c20746f6b656e000000000000000000000000000000000000000000000081525060029081620000729190620003a9565b506040518060400160405280600281526020017f6c7400000000000000000000000000000000000000000000000000000000000081525060039081620000b99190620003a9565b506064600755600754600b555f600c555f600d55348015620000d9575f80fd5b503360045f6101000a81548173ffffffffffffffffffffffffffffffffffffffff021916908373ffffffffffffffffffffffffffffffffffffffff160217905550600754600a6040516200012d90620004be565b908152602001604051809103902081905550620004d4565b5f81519050919050565b7f4e487b71000000000000000000000000000000000000000000000000000000005f52604160045260245ffd5b7f4e487b71000000000000000000000000000000000000000000000000000000005f52602260045260245ffd5b5f6002820490506001821680620001c157607f821691505b602082108103620001d757620001d66200017c565b5b50919050565b5f819050815f5260205f209050919050565b5f6020601f8301049050919050565b5f82821b905092915050565b5f600883026200023b7fffffffffffffffffffffffffffffffffffffffffffffffffffffffffffffffff82620001fe565b620002478683620001fe565b95508019841693508086168417925050509392505050565b5f819050919050565b5f819050919050565b5f620002916200028b62000285846200025f565b62000268565b6200025f565b9050919050565b5f819050919050565b620002ac8362000271565b620002c4620002bb8262000298565b8484546200020a565b825550505050565b5f90565b620002da620002cc565b620002e7818484620002a1565b505050565b5b818110156200030e57620003025f82620002d0565b600181019050620002ed565b5050565b601f8211156200035d576200032781620001dd565b6200033284620001ef565b8101602085101562000342578190505b6200035a6200035185620001ef565b830182620002ec565b50505b505050565b5f82821c905092915050565b5f6200037f5f198460080262000362565b1980831691505092915050565b5f6200039983836200036e565b9150826002028217905092915050565b620003b48262000145565b67ffffffffffffffff811115620003d057620003cf6200014f565b5b620003dc8254620001a9565b620003e982828562000312565b5f60209050601f8311600181146200041f575f84156200040a578287015190505b6200041685826200038c565b86555062000485565b601f1984166200042f86620001dd565b5f5b82811015620004585784890151825560018201915060208501945060208101905062000431565b8683101562000478578489015162000474601f8916826200036e565b8355505b6001600288020188555050505b505050505050565b5f81905092915050565b50565b5f620004a75f836200048d565b9150620004b48262000497565b5f82019050919050565b5f620004ca826200049a565b9150819050919050565b6129eb80620004e25f395ff3fe608060405234801561000f575f80fd5b5060043610610135575f3560e01c806370a08231116100b6578063a8285fdb1161007a578063a8285fdb1461036d578063d7e80eee14610377578063ded94688146103a7578063dfb826b1146103c5578063ed5225ef146103f5578063fc7d66671461041157610135565b806370a082311461029c5780638262bafc146102cc57806384ab8bb8146103015780638da5cb5b1461033157806395d89b411461034f57610135565b8063313ce567116100fd578063313ce567146101df57806334080a5d146101fd578063377b47a31461022d5780633ed2b77a14610237578063548e0ae51461026c57610135565b806306fdde03146101395780630b3f277f1461015757806318160ddd14610161578063241084751461017f5780632d82ee8b146101af575b5f80fd5b61014161042f565b60405161014e9190611abe565b60405180910390f35b61015f6104bb565b005b6101696105a6565b6040516101769190611af6565b60405180910390f35b61019960048036038101906101949190611c76565b6105ab565b6040516101a69190611cea565b60405180910390f35b6101c960048036038101906101c49190611d60565b61084e565b6040516101d69190611af6565b60405180910390f35b6101e76108b4565b6040516101f49190611dc6565b60405180910390f35b61021760048036038101906102129190611ddf565b6108c6565b6040516102249190611af6565b60405180910390f35b6102356108f3565b005b610251600480360381019061024c9190611e26565b610ae7565b60405161026396959493929190611e51565b60405180910390f35b61028660048036038101906102819190611f34565b610e52565b6040516102939190611af6565b60405180910390f35b6102b660048036038101906102b19190611f34565b610e9b565b6040516102c39190611af6565b60405180910390f35b6102e660048036038101906102e19190611d60565b610ee3565b6040516102f896959493929190611e51565b60405180910390f35b61031b60048036038101906103169190611f34565b611341565b6040516103289190611af6565b60405180910390f35b61033961138a565b6040516103469190611f6e565b60405180910390f35b6103576113af565b6040516103649190611abe565b60405180910390f35b61037561143b565b005b610391600480360381019061038c9190611f87565b61161d565b60405161039e9190611af6565b60405180910390f35b6103af6117a6565b6040516103bc9190611f6e565b60405180910390f35b6103df60048036038101906103da9190611e26565b6117ce565b6040516103ec9190611af6565b60405180910390f35b61040f600480360381019061040a9190611ffd565b6117e3565b005b610419611a07565b6040516104269190611af6565b60405180910390f35b6002805461043c9061215b565b80601f01602080910402602001604051908101604052809291908181526020018280546104689061215b565b80156104b35780601f1061048a576101008083540402835291602001916104b3565b820191905f5260205f20905b81548152906001019060200180831161049657829003601f168201915b505050505081565b60045f9054906101000a900473ffffffffffffffffffffffffffffffffffffffff1673ffffffffffffffffffffffffffffffffffffffff163373ffffffffffffffffffffffffffffffffffffffff1614610513575f80fd5b600754600b5403610559576040517f08c379a0000000000000000000000000000000000000000000000000000000008152600401610550906121d5565b60405180910390fd5b60095f600b5481526020019081526020015f20545f8082825461057c9190612220565b925050819055505f60095f600b5481526020019081526020015f2081905550600754600b81905550565b5f5481565b5f60055f3373ffffffffffffffffffffffffffffffffffffffff1673ffffffffffffffffffffffffffffffffffffffff1681526020019081526020015f206001015f9054906101000a900460ff1615610639576040517f08c379a00000000000000000000000000000000000000000000000000000000081526004016106309061229d565b60405180910390fd5b8261064333610e9b565b1015610684576040517f08c379a000000000000000000000000000000000000000000000000000000000815260040161067b90612305565b60405180910390fd5b5f61068e83611a0d565b905060075481036106d4576040517f08c379a00000000000000000000000000000000000000000000000000000000081526004016106cb9061236d565b60405180910390fd5b8360055f3373ffffffffffffffffffffffffffffffffffffffff1673ffffffffffffffffffffffffffffffffffffffff1681526020019081526020015f205f015f828254610722919061238b565b925050819055508360095f8381526020019081526020015f205f8282546107499190612220565b925050819055508360055f3373ffffffffffffffffffffffffffffffffffffffff1673ffffffffffffffffffffffffffffffffffffffff1681526020019081526020015f206003015f82825461079f9190612220565b92505081905550600160055f3373ffffffffffffffffffffffffffffffffffffffff1673ffffffffffffffffffffffffffffffffffffffff1681526020019081526020015f206001015f6101000a81548160ff0219169083151502179055508060055f3373ffffffffffffffffffffffffffffffffffffffff1673ffffffffffffffffffffffffffffffffffffffff1681526020019081526020015f2060020181905550600191505092915050565b5f60095f61089e85858080601f0160208091040260200160405190810160405280939291908181526020018383808284375f81840152601f19601f82011690508083019250505050505050611a0d565b81526020019081526020015f2054905092915050565b60015f9054906101000a900460ff1681565b600a818051602081018201805184825260208301602085012081835280955050505050505f915090505481565b60065f3373ffffffffffffffffffffffffffffffffffffffff1673ffffffffffffffffffffffffffffffffffffffff1681526020019081526020015f205f9054906101000a900460ff161561097d576040517f08c379a000000000000000000000000000000000000000000000000000000000815260040161097490612408565b60405180910390fd5b678ac7230489e800005f5410156109c9576040517f08c379a00000000000000000000000000000000000000000000000000000000081526004016109c090612470565b60405180910390fd5b600160065f3373ffffffffffffffffffffffffffffffffffffffff1673ffffffffffffffffffffffffffffffffffffffff1681526020019081526020015f205f6101000a81548160ff0219169083151502179055506040518060800160405280678ac7230489e8000081526020015f1515815260200160075481526020015f81525060055f3373ffffffffffffffffffffffffffffffffffffffff1673ffffffffffffffffffffffffffffffffffffffff1681526020019081526020015f205f820151815f01556020820151816001015f6101000a81548160ff0219169083151502179055506040820151816002015560608201518160030155905050678ac7230489e800005f80828254610ade919061238b565b92505081905550565b60088181548110610af6575f80fd5b905f5260205f2090600602015f91509050805f018054610b159061215b565b80601f0160208091040260200160405190810160405280929190818152602001828054610b419061215b565b8015610b8c5780601f10610b6357610100808354040283529160200191610b8c565b820191905f5260205f20905b815481529060010190602001808311610b6f57829003601f168201915b505050505090806001018054610ba19061215b565b80601f0160208091040260200160405190810160405280929190818152602001828054610bcd9061215b565b8015610c185780601f10610bef57610100808354040283529160200191610c18565b820191905f5260205f20905b815481529060010190602001808311610bfb57829003601f168201915b505050505090806002018054610c2d9061215b565b80601f0160208091040260200160405190810160405280929190818152602001828054610c599061215b565b8015610ca45780601f10610c7b57610100808354040283529160200191610ca4565b820191905f5260205f20905b815481529060010190602001808311610c8757829003601f168201915b505050505090806003018054610cb99061215b565b80601f0160208091040260200160405190810160405280929190818152602001828054610ce59061215b565b8015610d305780601f10610d0757610100808354040283529160200191610d30565b820191905f5260205f20905b815481529060010190602001808311610d1357829003601f168201915b505050505090806004018054610d459061215b565b80601f0160208091040260200160405190810160405280929190818152602001828054610d719061215b565b8015610dbc5780601f10610d9357610100808354040283529160200191610dbc565b820191905f5260205f20905b815481529060010190602001808311610d9f57829003601f168201915b505050505090806005018054610dd19061215b565b80601f0160208091040260200160405190810160405280929190818152602001828054610dfd9061215b565b8015610e485780601f10610e1f57610100808354040283529160200191610e48565b820191905f5260205f20905b815481529060010190602001808311610e2b57829003601f168201915b5050505050905086565b5f60055f8373ffffffffffffffffffffffffffffffffffffffff1673ffffffffffffffffffffffffffffffffffffffff1681526020019081526020015f20600201549050919050565b5f60055f8373ffffffffffffffffffffffffffffffffffffffff1673ffffffffffffffffffffffffffffffffffffffff1681526020019081526020015f205f01549050919050565b6060806060806060805f610f3989898080601f0160208091040260200160405190810160405280939291908181526020018383808284375f81840152601f19601f82011690508083019250505050505050611a0d565b90506007548103610f7f576040517f08c379a0000000000000000000000000000000000000000000000000000000008152600401610f769061236d565b60405180910390fd5b5f60088281548110610f9457610f9361248e565b5b905f5260205f2090600602016040518060c00160405290815f82018054610fba9061215b565b80601f0160208091040260200160405190810160405280929190818152602001828054610fe69061215b565b80156110315780601f1061100857610100808354040283529160200191611031565b820191905f5260205f20905b81548152906001019060200180831161101457829003601f168201915b5050505050815260200160018201805461104a9061215b565b80601f01602080910402602001604051908101604052809291908181526020018280546110769061215b565b80156110c15780601f10611098576101008083540402835291602001916110c1565b820191905f5260205f20905b8154815290600101906020018083116110a457829003601f168201915b505050505081526020016002820180546110da9061215b565b80601f01602080910402602001604051908101604052809291908181526020018280546111069061215b565b80156111515780601f1061112857610100808354040283529160200191611151565b820191905f5260205f20905b81548152906001019060200180831161113457829003601f168201915b5050505050815260200160038201805461116a9061215b565b80601f01602080910402602001604051908101604052809291908181526020018280546111969061215b565b80156111e15780601f106111b8576101008083540402835291602001916111e1565b820191905f5260205f20905b8154815290600101906020018083116111c457829003601f168201915b505050505081526020016004820180546111fa9061215b565b80601f01602080910402602001604051908101604052809291908181526020018280546112269061215b565b80156112715780601f1061124857610100808354040283529160200191611271565b820191905f5260205f20905b81548152906001019060200180831161125457829003601f168201915b5050505050815260200160058201805461128a9061215b565b80601f01602080910402602001604051908101604052809291908181526020018280546112b69061215b565b80156113015780601f106112d857610100808354040283529160200191611301565b820191905f5260205f20905b8154815290600101906020018083116112e457829003601f168201915b5050505050815250509050805f015181602001518260400151836060015184608001518560a0015197509750975097509750975050509295509295509295565b5f60055f8373ffffffffffffffffffffffffffffffffffffffff1673ffffffffffffffffffffffffffffffffffffffff1681526020019081526020015f20600301549050919050565b60045f9054906101000a900473ffffffffffffffffffffffffffffffffffffffff1681565b600380546113bc9061215b565b80601f01602080910402602001604051908101604052809291908181526020018280546113e89061215b565b80156114335780601f1061140a57610100808354040283529160200191611433565b820191905f5260205f20905b81548152906001019060200180831161141657829003601f168201915b505050505081565b600754600b5403611481576040517f08c379a0000000000000000000000000000000000000000000000000000000008152600401611478906121d5565b60405180910390fd5b600b5461148d33610e52565b03611538575f600c54600d546114a233611341565b6114ac91906124e8565b6114b69190612518565b90508060055f3373ffffffffffffffffffffffffffffffffffffffff1673ffffffffffffffffffffffffffffffffffffffff1681526020019081526020015f205f015f8282546115069190612220565b925050819055508060095f600b5481526020019081526020015f205f82825461152f919061238b565b92505081905550505b60075460055f3373ffffffffffffffffffffffffffffffffffffffff1673ffffffffffffffffffffffffffffffffffffffff1681526020019081526020015f20600201819055505f60055f3373ffffffffffffffffffffffffffffffffffffffff1673ffffffffffffffffffffffffffffffffffffffff1681526020019081526020015f20600301819055505f60055f3373ffffffffffffffffffffffffffffffffffffffff1673ffffffffffffffffffffffffffffffffffffffff1681526020019081526020015f206001015f6101000a81548160ff021916908315150217905550565b5f60045f9054906101000a900473ffffffffffffffffffffffffffffffffffffffff1673ffffffffffffffffffffffffffffffffffffffff163373ffffffffffffffffffffffffffffffffffffffff1614611676575f80fd5b5f61168084611a0d565b90505f61168c84611a0d565b905060075482036116d2576040517f08c379a00000000000000000000000000000000000000000000000000000000081526004016116c9906125a3565b60405180910390fd5b6007548103611716576040517f08c379a000000000000000000000000000000000000000000000000000000000815260040161170d9061260b565b60405180910390fd5b81600b8190555060095f8381526020019081526020015f2054600d8190555060095f8281526020019081526020015f205460095f8481526020019081526020015f205f8282546117669190612220565b9250508190555060095f8381526020019081526020015f2054600c819055505f60095f8381526020019081526020015f2081905550819250505092915050565b5f60045f9054906101000a900473ffffffffffffffffffffffffffffffffffffffff16905090565b6009602052805f5260405f205f915090505481565b60045f9054906101000a900473ffffffffffffffffffffffffffffffffffffffff1673ffffffffffffffffffffffffffffffffffffffff163373ffffffffffffffffffffffffffffffffffffffff161461183b575f80fd5b5f86511161187e576040517f08c379a000000000000000000000000000000000000000000000000000000000815260040161187590612673565b60405180910390fd5b5f600a8760405161188f91906126cb565b908152602001604051809103902054146118de576040517f08c379a00000000000000000000000000000000000000000000000000000000081526004016118d59061272b565b60405180910390fd5b5f6040518060c001604052808881526020018781526020018681526020018581526020018481526020018381525090505f6008805490509050600882908060018154018082558091505060019003905f5260205f2090600602015f909190919091505f820151815f01908161195391906128e6565b50602082015181600101908161196991906128e6565b50604082015181600201908161197f91906128e6565b50606082015181600301908161199591906128e6565b5060808201518160040190816119ab91906128e6565b5060a08201518160050190816119c191906128e6565b50505080600a896040516119d591906126cb565b9081526020016040518091039020819055505f60095f8381526020019081526020015f20819055505050505050505050565b60075481565b5f600a82604051611a1e91906126cb565b9081526020016040518091039020549050919050565b5f81519050919050565b5f82825260208201905092915050565b5f5b83811015611a6b578082015181840152602081019050611a50565b5f8484015250505050565b5f601f19601f8301169050919050565b5f611a9082611a34565b611a9a8185611a3e565b9350611aaa818560208601611a4e565b611ab381611a76565b840191505092915050565b5f6020820190508181035f830152611ad68184611a86565b905092915050565b5f819050919050565b611af081611ade565b82525050565b5f602082019050611b095f830184611ae7565b92915050565b5f604051905090565b5f80fd5b5f80fd5b611b2981611ade565b8114611b33575f80fd5b50565b5f81359050611b4481611b20565b92915050565b5f80fd5b5f80fd5b7f4e487b71000000000000000000000000000000000000000000000000000000005f52604160045260245ffd5b611b8882611a76565b810181811067ffffffffffffffff82111715611ba757611ba6611b52565b5b80604052505050565b5f611bb9611b0f565b9050611bc58282611b7f565b919050565b5f67ffffffffffffffff821115611be457611be3611b52565b5b611bed82611a76565b9050602081019050919050565b828183375f83830152505050565b5f611c1a611c1584611bca565b611bb0565b905082815260208101848484011115611c3657611c35611b4e565b5b611c41848285611bfa565b509392505050565b5f82601f830112611c5d57611c5c611b4a565b5b8135611c6d848260208601611c08565b91505092915050565b5f8060408385031215611c8c57611c8b611b18565b5b5f611c9985828601611b36565b925050602083013567ffffffffffffffff811115611cba57611cb9611b1c565b5b611cc685828601611c49565b9150509250929050565b5f8115159050919050565b611ce481611cd0565b82525050565b5f602082019050611cfd5f830184611cdb565b92915050565b5f80fd5b5f80fd5b5f8083601f840112611d2057611d1f611b4a565b5b8235905067ffffffffffffffff811115611d3d57611d3c611d03565b5b602083019150836001820283011115611d5957611d58611d07565b5b9250929050565b5f8060208385031215611d7657611d75611b18565b5b5f83013567ffffffffffffffff811115611d9357611d92611b1c565b5b611d9f85828601611d0b565b92509250509250929050565b5f60ff82169050919050565b611dc081611dab565b82525050565b5f602082019050611dd95f830184611db7565b92915050565b5f60208284031215611df457611df3611b18565b5b5f82013567ffffffffffffffff811115611e1157611e10611b1c565b5b611e1d84828501611c49565b91505092915050565b5f60208284031215611e3b57611e3a611b18565b5b5f611e4884828501611b36565b91505092915050565b5f60c0820190508181035f830152611e698189611a86565b90508181036020830152611e7d8188611a86565b90508181036040830152611e918187611a86565b90508181036060830152611ea58186611a86565b90508181036080830152611eb98185611a86565b905081810360a0830152611ecd8184611a86565b9050979650505050505050565b5f73ffffffffffffffffffffffffffffffffffffffff82169050919050565b5f611f0382611eda565b9050919050565b611f1381611ef9565b8114611f1d575f80fd5b50565b5f81359050611f2e81611f0a565b92915050565b5f60208284031215611f4957611f48611b18565b5b5f611f5684828501611f20565b91505092915050565b611f6881611ef9565b82525050565b5f602082019050611f815f830184611f5f565b92915050565b5f8060408385031215611f9d57611f9c611b18565b5b5f83013567ffffffffffffffff811115611fba57611fb9611b1c565b5b611fc685828601611c49565b925050602083013567ffffffffffffffff811115611fe757611fe6611b1c565b5b611ff385828601611c49565b9150509250929050565b5f805f805f8060c0878903121561201757612016611b18565b5b5f87013567ffffffffffffffff81111561203457612033611b1c565b5b61204089828a01611c49565b965050602087013567ffffffffffffffff81111561206157612060611b1c565b5b61206d89828a01611c49565b955050604087013567ffffffffffffffff81111561208e5761208d611b1c565b5b61209a89828a01611c49565b945050606087013567ffffffffffffffff8111156120bb576120ba611b1c565b5b6120c789828a01611c49565b935050608087013567ffffffffffffffff8111156120e8576120e7611b1c565b5b6120f489828a01611c49565b92505060a087013567ffffffffffffffff81111561211557612114611b1c565b5b61212189828a01611c49565b9150509295509295509295565b7f4e487b71000000000000000000000000000000000000000000000000000000005f52602260045260245ffd5b5f600282049050600182168061217257607f821691505b6020821081036121855761218461212e565b5b50919050565b7f77696e6e6572207465616d20696e646578206e6f7420736574000000000000005f82015250565b5f6121bf601983611a3e565b91506121ca8261218b565b602082019050919050565b5f6020820190508181035f8301526121ec816121b3565b9050919050565b7f4e487b71000000000000000000000000000000000000000000000000000000005f52601160045260245ffd5b5f61222a82611ade565b915061223583611ade565b925082820190508082111561224d5761224c6121f3565b5b92915050565b7f596f75206861766520616c726561647920766f746564210000000000000000005f82015250565b5f612287601783611a3e565b915061229282612253565b602082019050919050565b5f6020820190508181035f8301526122b48161227b565b9050919050565b7f4e6f7420656e6f75676820746f6b656e732100000000000000000000000000005f82015250565b5f6122ef601283611a3e565b91506122fa826122bb565b602082019050919050565b5f6020820190508181035f83015261231c816122e3565b9050919050565b7f496e76616c6964207465616d206e616d650000000000000000000000000000005f82015250565b5f612357601183611a3e565b915061236282612323565b602082019050919050565b5f6020820190508181035f8301526123848161234b565b9050919050565b5f61239582611ade565b91506123a083611ade565b92508282039050818111156123b8576123b76121f3565b5b92915050565b7f596f75206861766520616c7265616479207265676973746572656400000000005f82015250565b5f6123f2601b83611a3e565b91506123fd826123be565b602082019050919050565b5f6020820190508181035f83015261241f816123e6565b9050919050565b7f4e6f7420656e6f75676820746f74616c537570706c79210000000000000000005f82015250565b5f61245a601783611a3e565b915061246582612426565b602082019050919050565b5f6020820190508181035f8301526124878161244e565b9050919050565b7f4e487b71000000000000000000000000000000000000000000000000000000005f52603260045260245ffd5b7f4e487b71000000000000000000000000000000000000000000000000000000005f52601260045260245ffd5b5f6124f282611ade565b91506124fd83611ade565b92508261250d5761250c6124bb565b5b828204905092915050565b5f61252282611ade565b915061252d83611ade565b925082820261253b81611ade565b91508282048414831517612552576125516121f3565b5b5092915050565b7f496e76616c69642077696e6e6572207465616d206e616d6500000000000000005f82015250565b5f61258d601883611a3e565b915061259882612559565b602082019050919050565b5f6020820190508181035f8301526125ba81612581565b9050919050565b7f496e76616c6964206c6f736572207465616d206e616d650000000000000000005f82015250565b5f6125f5601783611a3e565b9150612600826125c1565b602082019050919050565b5f6020820190508181035f830152612622816125e9565b9050919050565b7f5465616d206e616d652063616e6e6f7420626520656d707479000000000000005f82015250565b5f61265d601983611a3e565b915061266882612629565b602082019050919050565b5f6020820190508181035f83015261268a81612651565b9050919050565b5f81905092915050565b5f6126a582611a34565b6126af8185612691565b93506126bf818560208601611a4e565b80840191505092915050565b5f6126d6828461269b565b915081905092915050565b7f5465616d206e616d6520616c72656164792065786973747300000000000000005f82015250565b5f612715601883611a3e565b9150612720826126e1565b602082019050919050565b5f6020820190508181035f83015261274281612709565b9050919050565b5f819050815f5260205f209050919050565b5f6020601f8301049050919050565b5f82821b905092915050565b5f600883026127a57fffffffffffffffffffffffffffffffffffffffffffffffffffffffffffffffff8261276a565b6127af868361276a565b95508019841693508086168417925050509392505050565b5f819050919050565b5f6127ea6127e56127e084611ade565b6127c7565b611ade565b9050919050565b5f819050919050565b612803836127d0565b61281761280f826127f1565b848454612776565b825550505050565b5f90565b61282b61281f565b6128368184846127fa565b505050565b5b818110156128595761284e5f82612823565b60018101905061283c565b5050565b601f82111561289e5761286f81612749565b6128788461275b565b81016020851015612887578190505b61289b6128938561275b565b83018261283b565b50505b505050565b5f82821c905092915050565b5f6128be5f19846008026128a3565b1980831691505092915050565b5f6128d683836128af565b9150826002028217905092915050565b6128ef82611a34565b67ffffffffffffffff81111561290857612907611b52565b5b612912825461215b565b61291d82828561285d565b5f60209050601f83116001811461294e575f841561293c578287015190505b61294685826128cb565b8655506129ad565b601f19841661295c86612749565b5f5b828110156129835784890151825560018201915060208501945060208101905061295e565b868310156129a0578489015161299c601f8916826128af565b8355505b6001600288020188555050505b50505050505056fea2646970667358221220c34bdfee4c404477f83b4ca7f7b1aca700b0eafb288db465a7220b5d93db6d1964736f6c63430008150033",
  "immutableReferences": {},
  "source": "// SPDX-License-Identifier: MIT\r\npragma solidity >=0.8.18 <0.9.0;\r\nimport './SetTeam.sol';\r\n// Vote.sol\r\n\r\ncontract Vote is SetTeam {\r\n    // user  \r\n    function vote(uint256 _amount, string memory _teamName) public returns(bool) {\r\n        //       \r\n        require(!userData[msg.sender].voted, \"You have already voted!\");\r\n        //       \r\n        require(balanceOf(msg.sender) >= _amount, \"Not enough tokens!\");\r\n\r\n        //    index \r\n        uint index = getTeamIndexByTeamName(_teamName);\r\n        require(index != INVALID_INDEX, \"Invalid team name\");\r\n\r\n        //   ->     \r\n        userData[msg.sender].balance -= _amount;\r\n        teamWeight[index] += _amount;\r\n        //  gameEnd()  ,           \r\n        userData[msg.sender].voteBalance += _amount; \r\n\r\n        //        \r\n        userData[msg.sender].voted = true;\r\n        //    \r\n        userData[msg.sender].teamIndex = index;\r\n        \r\n        return true;\r\n    }\r\n\r\n    //    \r\n    // SetTeam.sol  winnerTeamIndex .\r\n    function gameEnd(string memory _teamNameWin, string memory _teamNameLose) public onlyOwner returns(uint) {\r\n        //  ,   index \r\n        uint _winnerTeamIndex = getTeamIndexByTeamName(_teamNameWin);\r\n        uint _loserTeamIndex = getTeamIndexByTeamName(_teamNameLose);\r\n        require(_winnerTeamIndex != INVALID_INDEX, \"Invalid winner team name\");\r\n        require(_loserTeamIndex != INVALID_INDEX, \"Invalid loser team name\");\r\n\r\n        winnerTeamIndex = _winnerTeamIndex;\r\n        //  winner team   ( )\r\n        winnerTeamPureBalance = teamWeight[_winnerTeamIndex];      \r\n        //        \r\n        teamWeight[_winnerTeamIndex] += teamWeight[_loserTeamIndex];\r\n\r\n        //    : bettingTotalBalance(   )\r\n        bettingTotalBalance = teamWeight[_winnerTeamIndex];\r\n        teamWeight[_loserTeamIndex] = 0;\r\n\r\n        return _winnerTeamIndex;\r\n    }\r\n\r\n\r\n    //     :         \r\n    //     :  ,   \r\n    function returnBettingResult() public {\r\n        require(winnerTeamIndex != INVALID_INDEX, \"winner team index not set\");\r\n\r\n        if (getUserVotedTeamIndex(msg.sender) == winnerTeamIndex) {\r\n            //    \r\n            uint amountToReturn = (voteBalanceOf(msg.sender) / winnerTeamPureBalance) * bettingTotalBalance;\r\n            // teamWeight[winner]  user \r\n            userData[msg.sender].balance += amountToReturn;\r\n            teamWeight[winnerTeamIndex] -= amountToReturn;\r\n        }\r\n        // user betting  data \r\n        userData[msg.sender].teamIndex = INVALID_INDEX;\r\n        userData[msg.sender].voteBalance = 0;\r\n        userData[msg.sender].voted = false;\r\n    }\r\n\r\n    //     (ex.  )\r\n    //   totalSupply \r\n    // winner team weight = 0\r\n    function returnBettingResultOver() public onlyOwner {\r\n        require(winnerTeamIndex != INVALID_INDEX, \"winner team index not set\");\r\n        totalSupply += teamWeight[winnerTeamIndex];\r\n        teamWeight[winnerTeamIndex] = 0;\r\n        winnerTeamIndex = INVALID_INDEX;\r\n    }\r\n}",
  "sourcePath": "C:\\Users\\qww93\\Desktop\\vote_dapp\\vote-lck\\src\\contracts\\Vote.sol",
  "compiler": {
    "name": "solc",
    "version": "0.8.21+commit.d9974bed.Emscripten.clang"
  },
  "schemaVersion": "3.4.14",
  "updatedAt": "2023-07-27T04:26:20.043Z",
  "devdoc": {
    "kind": "dev",
    "methods": {},
    "version": 1
  },
  "userdoc": {
    "kind": "user",
    "methods": {},
    "version": 1
  }
}