{
  "contractName": "Vote",
  "abi": [
    {
      "inputs": [],
      "name": "INVALID_INDEX",
      "outputs": [
        {
          "internalType": "uint256",
          "name": "",
          "type": "uint256"
        }
      ],
      "stateMutability": "view",
      "type": "function"
    },
    {
      "inputs": [
        {
          "internalType": "address",
          "name": "_address",
          "type": "address"
        }
      ],
      "name": "balanceOf",
      "outputs": [
        {
          "internalType": "uint256",
          "name": "",
          "type": "uint256"
        }
      ],
      "stateMutability": "view",
      "type": "function"
    },
    {
      "inputs": [],
      "name": "decimals",
      "outputs": [
        {
          "internalType": "uint8",
          "name": "",
          "type": "uint8"
        }
      ],
      "stateMutability": "view",
      "type": "function"
    },
    {
      "inputs": [
        {
          "internalType": "string",
          "name": "_teamName",
          "type": "string"
        }
      ],
      "name": "getTeamDataByTeamName",
      "outputs": [
        {
          "internalType": "string",
          "name": "",
          "type": "string"
        },
        {
          "internalType": "string",
          "name": "",
          "type": "string"
        },
        {
          "internalType": "string",
          "name": "",
          "type": "string"
        },
        {
          "internalType": "string",
          "name": "",
          "type": "string"
        },
        {
          "internalType": "string",
          "name": "",
          "type": "string"
        },
        {
          "internalType": "string",
          "name": "",
          "type": "string"
        }
      ],
      "stateMutability": "view",
      "type": "function"
    },
    {
      "inputs": [
        {
          "internalType": "string",
          "name": "_teamName",
          "type": "string"
        }
      ],
      "name": "getTeamWeightByTeamName",
      "outputs": [
        {
          "internalType": "uint256",
          "name": "",
          "type": "uint256"
        }
      ],
      "stateMutability": "view",
      "type": "function"
    },
    {
      "inputs": [
        {
          "internalType": "address",
          "name": "_address",
          "type": "address"
        }
      ],
      "name": "getUserVotedTeamIndex",
      "outputs": [
        {
          "internalType": "uint256",
          "name": "",
          "type": "uint256"
        }
      ],
      "stateMutability": "view",
      "type": "function"
    },
    {
      "inputs": [],
      "name": "logIn",
      "outputs": [],
      "stateMutability": "nonpayable",
      "type": "function"
    },
    {
      "inputs": [],
      "name": "name",
      "outputs": [
        {
          "internalType": "string",
          "name": "",
          "type": "string"
        }
      ],
      "stateMutability": "view",
      "type": "function"
    },
    {
      "inputs": [],
      "name": "owner",
      "outputs": [
        {
          "internalType": "address",
          "name": "",
          "type": "address"
        }
      ],
      "stateMutability": "view",
      "type": "function"
    },
    {
      "inputs": [
        {
          "internalType": "string",
          "name": "_teamName",
          "type": "string"
        },
        {
          "internalType": "string",
          "name": "_top",
          "type": "string"
        },
        {
          "internalType": "string",
          "name": "_jug",
          "type": "string"
        },
        {
          "internalType": "string",
          "name": "_mid",
          "type": "string"
        },
        {
          "internalType": "string",
          "name": "_adc",
          "type": "string"
        },
        {
          "internalType": "string",
          "name": "_sup",
          "type": "string"
        }
      ],
      "name": "setTeam",
      "outputs": [],
      "stateMutability": "nonpayable",
      "type": "function"
    },
    {
      "inputs": [],
      "name": "showOwner",
      "outputs": [
        {
          "internalType": "address",
          "name": "",
          "type": "address"
        }
      ],
      "stateMutability": "view",
      "type": "function"
    },
    {
      "inputs": [],
      "name": "symbol",
      "outputs": [
        {
          "internalType": "string",
          "name": "",
          "type": "string"
        }
      ],
      "stateMutability": "view",
      "type": "function"
    },
    {
      "inputs": [
        {
          "internalType": "string",
          "name": "",
          "type": "string"
        }
      ],
      "name": "teamIndex",
      "outputs": [
        {
          "internalType": "uint256",
          "name": "",
          "type": "uint256"
        }
      ],
      "stateMutability": "view",
      "type": "function"
    },
    {
      "inputs": [
        {
          "internalType": "uint256",
          "name": "",
          "type": "uint256"
        }
      ],
      "name": "teamWeight",
      "outputs": [
        {
          "internalType": "uint256",
          "name": "",
          "type": "uint256"
        }
      ],
      "stateMutability": "view",
      "type": "function"
    },
    {
      "inputs": [
        {
          "internalType": "uint256",
          "name": "",
          "type": "uint256"
        }
      ],
      "name": "teams",
      "outputs": [
        {
          "internalType": "string",
          "name": "teamName",
          "type": "string"
        },
        {
          "internalType": "string",
          "name": "top",
          "type": "string"
        },
        {
          "internalType": "string",
          "name": "jug",
          "type": "string"
        },
        {
          "internalType": "string",
          "name": "mid",
          "type": "string"
        },
        {
          "internalType": "string",
          "name": "adc",
          "type": "string"
        },
        {
          "internalType": "string",
          "name": "sup",
          "type": "string"
        }
      ],
      "stateMutability": "view",
      "type": "function"
    },
    {
      "inputs": [],
      "name": "totalSupply",
      "outputs": [
        {
          "internalType": "uint256",
          "name": "",
          "type": "uint256"
        }
      ],
      "stateMutability": "view",
      "type": "function"
    },
    {
      "inputs": [
        {
          "internalType": "address",
          "name": "_address",
          "type": "address"
        }
      ],
      "name": "voteBalanceOf",
      "outputs": [
        {
          "internalType": "uint256",
          "name": "",
          "type": "uint256"
        }
      ],
      "stateMutability": "view",
      "type": "function"
    },
    {
      "inputs": [
        {
          "internalType": "uint256",
          "name": "_amount",
          "type": "uint256"
        },
        {
          "internalType": "string",
          "name": "_teamName",
          "type": "string"
        }
      ],
      "name": "vote",
      "outputs": [
        {
          "internalType": "bool",
          "name": "",
          "type": "bool"
        }
      ],
      "stateMutability": "nonpayable",
      "type": "function"
    },
    {
      "inputs": [
        {
          "internalType": "string",
          "name": "_teamNameWin",
          "type": "string"
        },
        {
          "internalType": "string",
          "name": "_teamNameLose",
          "type": "string"
        }
      ],
      "name": "gameEnd",
      "outputs": [
        {
          "internalType": "uint256",
          "name": "",
          "type": "uint256"
        }
      ],
      "stateMutability": "nonpayable",
      "type": "function"
    },
    {
      "inputs": [],
      "name": "returnBettingResult",
      "outputs": [],
      "stateMutability": "nonpayable",
      "type": "function"
    },
    {
      "inputs": [],
      "name": "returnBettingResultOver",
      "outputs": [],
      "stateMutability": "nonpayable",
      "type": "function"
    }
  ],
  "bytecode": "0x608060405269d3c21bcecceda10000005f55601260015f6101000a81548160ff021916908360ff1602179055506040518060400160405280600981526020017f6c6f6c20746f6b656e000000000000000000000000000000000000000000000081525060029081620000729190620003a9565b506040518060400160405280600281526020017f6c7400000000000000000000000000000000000000000000000000000000000081525060039081620000b99190620003a9565b506064600755600754600b555f600c555f600d55348015620000d9575f80fd5b503360045f6101000a81548173ffffffffffffffffffffffffffffffffffffffff021916908373ffffffffffffffffffffffffffffffffffffffff160217905550600754600a6040516200012d90620004be565b908152602001604051809103902081905550620004d4565b5f81519050919050565b7f4e487b71000000000000000000000000000000000000000000000000000000005f52604160045260245ffd5b7f4e487b71000000000000000000000000000000000000000000000000000000005f52602260045260245ffd5b5f6002820490506001821680620001c157607f821691505b602082108103620001d757620001d66200017c565b5b50919050565b5f819050815f5260205f209050919050565b5f6020601f8301049050919050565b5f82821b905092915050565b5f600883026200023b7fffffffffffffffffffffffffffffffffffffffffffffffffffffffffffffffff82620001fe565b620002478683620001fe565b95508019841693508086168417925050509392505050565b5f819050919050565b5f819050919050565b5f620002916200028b62000285846200025f565b62000268565b6200025f565b9050919050565b5f819050919050565b620002ac8362000271565b620002c4620002bb8262000298565b8484546200020a565b825550505050565b5f90565b620002da620002cc565b620002e7818484620002a1565b505050565b5b818110156200030e57620003025f82620002d0565b600181019050620002ed565b5050565b601f8211156200035d576200032781620001dd565b6200033284620001ef565b8101602085101562000342578190505b6200035a6200035185620001ef565b830182620002ec565b50505b505050565b5f82821c905092915050565b5f6200037f5f198460080262000362565b1980831691505092915050565b5f6200039983836200036e565b9150826002028217905092915050565b620003b48262000145565b67ffffffffffffffff811115620003d057620003cf6200014f565b5b620003dc8254620001a9565b620003e982828562000312565b5f60209050601f8311600181146200041f575f84156200040a578287015190505b6200041685826200038c565b86555062000485565b601f1984166200042f86620001dd565b5f5b82811015620004585784890151825560018201915060208501945060208101905062000431565b8683101562000478578489015162000474601f8916826200036e565b8355505b6001600288020188555050505b505050505050565b5f81905092915050565b50565b5f620004a75f836200048d565b9150620004b48262000497565b5f82019050919050565b5f620004ca826200049a565b9150819050919050565b612a2080620004e25f395ff3fe608060405234801561000f575f80fd5b5060043610610135575f3560e01c806370a08231116100b6578063a8285fdb1161007a578063a8285fdb1461036d578063d7e80eee14610377578063ded94688146103a7578063dfb826b1146103c5578063ed5225ef146103f5578063fc7d66671461041157610135565b806370a082311461029c5780638262bafc146102cc57806384ab8bb8146103015780638da5cb5b1461033157806395d89b411461034f57610135565b8063313ce567116100fd578063313ce567146101df57806334080a5d146101fd578063377b47a31461022d5780633ed2b77a14610237578063548e0ae51461026c57610135565b806306fdde03146101395780630b3f277f1461015757806318160ddd14610161578063241084751461017f5780632d82ee8b146101af575b5f80fd5b61014161042f565b60405161014e9190611af3565b60405180910390f35b61015f6104bb565b005b61016961059d565b6040516101769190611b2b565b60405180910390f35b61019960048036038101906101949190611cab565b6105a2565b6040516101a69190611d1f565b60405180910390f35b6101c960048036038101906101c49190611d95565b610847565b6040516101d69190611b2b565b60405180910390f35b6101e76108ad565b6040516101f49190611dfb565b60405180910390f35b61021760048036038101906102129190611e14565b6108bf565b6040516102249190611b2b565b60405180910390f35b6102356108ec565b005b610251600480360381019061024c9190611e5b565b610b09565b60405161026396959493929190611e86565b60405180910390f35b61028660048036038101906102819190611f69565b610e74565b6040516102939190611b2b565b60405180910390f35b6102b660048036038101906102b19190611f69565b610ebd565b6040516102c39190611b2b565b60405180910390f35b6102e660048036038101906102e19190611d95565b610f05565b6040516102f896959493929190611e86565b60405180910390f35b61031b60048036038101906103169190611f69565b611363565b6040516103289190611b2b565b60405180910390f35b6103396113ac565b6040516103469190611fa3565b60405180910390f35b6103576113d1565b6040516103649190611af3565b60405180910390f35b61037561145d565b005b610391600480360381019061038c9190611fbc565b611652565b60405161039e9190611b2b565b60405180910390f35b6103af6117db565b6040516103bc9190611fa3565b60405180910390f35b6103df60048036038101906103da9190611e5b565b611803565b6040516103ec9190611b2b565b60405180910390f35b61040f600480360381019061040a9190612032565b611818565b005b610419611a3c565b6040516104269190611b2b565b60405180910390f35b6002805461043c90612190565b80601f016020809104026020016040519081016040528092919081815260200182805461046890612190565b80156104b35780601f1061048a576101008083540402835291602001916104b3565b820191905f5260205f20905b81548152906001019060200180831161049657829003601f168201915b505050505081565b60045f9054906101000a900473ffffffffffffffffffffffffffffffffffffffff1673ffffffffffffffffffffffffffffffffffffffff163373ffffffffffffffffffffffffffffffffffffffff1614610513575f80fd5b600754600b5403610559576040517f08c379a00000000000000000000000000000000000000000000000000000000081526004016105509061220a565b60405180910390fd5b60095f600b5481526020019081526020015f20545f8082825461057c9190612255565b925050819055505f60095f600b5481526020019081526020015f2081905550565b5f5481565b5f60055f3373ffffffffffffffffffffffffffffffffffffffff1673ffffffffffffffffffffffffffffffffffffffff1681526020019081526020015f2060010160019054906101000a900460ff1615610631576040517f08c379a0000000000000000000000000000000000000000000000000000000008152600401610628906122d2565b60405180910390fd5b8261063b33610ebd565b101561067c576040517f08c379a00000000000000000000000000000000000000000000000000000000081526004016106739061233a565b60405180910390fd5b5f61068683611a42565b905060075481036106cc576040517f08c379a00000000000000000000000000000000000000000000000000000000081526004016106c3906123a2565b60405180910390fd5b8360055f3373ffffffffffffffffffffffffffffffffffffffff1673ffffffffffffffffffffffffffffffffffffffff1681526020019081526020015f205f015f82825461071a91906123c0565b925050819055508360095f8381526020019081526020015f205f8282546107419190612255565b925050819055508360055f3373ffffffffffffffffffffffffffffffffffffffff1673ffffffffffffffffffffffffffffffffffffffff1681526020019081526020015f206003015f8282546107979190612255565b92505081905550600160055f3373ffffffffffffffffffffffffffffffffffffffff1673ffffffffffffffffffffffffffffffffffffffff1681526020019081526020015f2060010160016101000a81548160ff0219169083151502179055508060055f3373ffffffffffffffffffffffffffffffffffffffff1673ffffffffffffffffffffffffffffffffffffffff1681526020019081526020015f2060020181905550600191505092915050565b5f60095f61089785858080601f0160208091040260200160405190810160405280939291908181526020018383808284375f81840152601f19601f82011690508083019250505050505050611a42565b81526020019081526020015f2054905092915050565b60015f9054906101000a900460ff1681565b600a818051602081018201805184825260208301602085012081835280955050505050505f915090505481565b60065f3373ffffffffffffffffffffffffffffffffffffffff1673ffffffffffffffffffffffffffffffffffffffff1681526020019081526020015f205f9054906101000a900460ff1615610976576040517f08c379a000000000000000000000000000000000000000000000000000000000815260040161096d9061243d565b60405180910390fd5b678ac7230489e800005f5410156109c2576040517f08c379a00000000000000000000000000000000000000000000000000000000081526004016109b9906124a5565b60405180910390fd5b600160065f3373ffffffffffffffffffffffffffffffffffffffff1673ffffffffffffffffffffffffffffffffffffffff1681526020019081526020015f205f6101000a81548160ff0219169083151502179055506040518060a00160405280678ac7230489e8000081526020016001151581526020015f1515815260200160075481526020015f81525060055f3373ffffffffffffffffffffffffffffffffffffffff1673ffffffffffffffffffffffffffffffffffffffff1681526020019081526020015f205f820151815f01556020820151816001015f6101000a81548160ff02191690831515021790555060408201518160010160016101000a81548160ff0219169083151502179055506060820151816002015560808201518160030155905050678ac7230489e800005f80828254610b0091906123c0565b92505081905550565b60088181548110610b18575f80fd5b905f5260205f2090600602015f91509050805f018054610b3790612190565b80601f0160208091040260200160405190810160405280929190818152602001828054610b6390612190565b8015610bae5780601f10610b8557610100808354040283529160200191610bae565b820191905f5260205f20905b815481529060010190602001808311610b9157829003601f168201915b505050505090806001018054610bc390612190565b80601f0160208091040260200160405190810160405280929190818152602001828054610bef90612190565b8015610c3a5780601f10610c1157610100808354040283529160200191610c3a565b820191905f5260205f20905b815481529060010190602001808311610c1d57829003601f168201915b505050505090806002018054610c4f90612190565b80601f0160208091040260200160405190810160405280929190818152602001828054610c7b90612190565b8015610cc65780601f10610c9d57610100808354040283529160200191610cc6565b820191905f5260205f20905b815481529060010190602001808311610ca957829003601f168201915b505050505090806003018054610cdb90612190565b80601f0160208091040260200160405190810160405280929190818152602001828054610d0790612190565b8015610d525780601f10610d2957610100808354040283529160200191610d52565b820191905f5260205f20905b815481529060010190602001808311610d3557829003601f168201915b505050505090806004018054610d6790612190565b80601f0160208091040260200160405190810160405280929190818152602001828054610d9390612190565b8015610dde5780601f10610db557610100808354040283529160200191610dde565b820191905f5260205f20905b815481529060010190602001808311610dc157829003601f168201915b505050505090806005018054610df390612190565b80601f0160208091040260200160405190810160405280929190818152602001828054610e1f90612190565b8015610e6a5780601f10610e4157610100808354040283529160200191610e6a565b820191905f5260205f20905b815481529060010190602001808311610e4d57829003601f168201915b5050505050905086565b5f60055f8373ffffffffffffffffffffffffffffffffffffffff1673ffffffffffffffffffffffffffffffffffffffff1681526020019081526020015f20600201549050919050565b5f60055f8373ffffffffffffffffffffffffffffffffffffffff1673ffffffffffffffffffffffffffffffffffffffff1681526020019081526020015f205f01549050919050565b6060806060806060805f610f5b89898080601f0160208091040260200160405190810160405280939291908181526020018383808284375f81840152601f19601f82011690508083019250505050505050611a42565b90506007548103610fa1576040517f08c379a0000000000000000000000000000000000000000000000000000000008152600401610f98906123a2565b60405180910390fd5b5f60088281548110610fb657610fb56124c3565b5b905f5260205f2090600602016040518060c00160405290815f82018054610fdc90612190565b80601f016020809104026020016040519081016040528092919081815260200182805461100890612190565b80156110535780601f1061102a57610100808354040283529160200191611053565b820191905f5260205f20905b81548152906001019060200180831161103657829003601f168201915b5050505050815260200160018201805461106c90612190565b80601f016020809104026020016040519081016040528092919081815260200182805461109890612190565b80156110e35780601f106110ba576101008083540402835291602001916110e3565b820191905f5260205f20905b8154815290600101906020018083116110c657829003601f168201915b505050505081526020016002820180546110fc90612190565b80601f016020809104026020016040519081016040528092919081815260200182805461112890612190565b80156111735780601f1061114a57610100808354040283529160200191611173565b820191905f5260205f20905b81548152906001019060200180831161115657829003601f168201915b5050505050815260200160038201805461118c90612190565b80601f01602080910402602001604051908101604052809291908181526020018280546111b890612190565b80156112035780601f106111da57610100808354040283529160200191611203565b820191905f5260205f20905b8154815290600101906020018083116111e657829003601f168201915b5050505050815260200160048201805461121c90612190565b80601f016020809104026020016040519081016040528092919081815260200182805461124890612190565b80156112935780601f1061126a57610100808354040283529160200191611293565b820191905f5260205f20905b81548152906001019060200180831161127657829003601f168201915b505050505081526020016005820180546112ac90612190565b80601f01602080910402602001604051908101604052809291908181526020018280546112d890612190565b80156113235780601f106112fa57610100808354040283529160200191611323565b820191905f5260205f20905b81548152906001019060200180831161130657829003601f168201915b5050505050815250509050805f015181602001518260400151836060015184608001518560a0015197509750975097509750975050509295509295509295565b5f60055f8373ffffffffffffffffffffffffffffffffffffffff1673ffffffffffffffffffffffffffffffffffffffff1681526020019081526020015f20600301549050919050565b60045f9054906101000a900473ffffffffffffffffffffffffffffffffffffffff1681565b600380546113de90612190565b80601f016020809104026020016040519081016040528092919081815260200182805461140a90612190565b80156114555780601f1061142c57610100808354040283529160200191611455565b820191905f5260205f20905b81548152906001019060200180831161143857829003601f168201915b505050505081565b600754600b54036114a3576040517f08c379a000000000000000000000000000000000000000000000000000000000815260040161149a9061220a565b60405180910390fd5b600b546114af33610e74565b036115f8575f600d54600c546114c433611363565b6114ce91906124f0565b6114d8919061255e565b90505f600c54826114e991906124f0565b90508060055f3373ffffffffffffffffffffffffffffffffffffffff1673ffffffffffffffffffffffffffffffffffffffff1681526020019081526020015f205f015f8282546115399190612255565b925050819055508060095f600b5481526020019081526020015f205f82825461156291906123c0565b9250508190555060075460055f3373ffffffffffffffffffffffffffffffffffffffff1673ffffffffffffffffffffffffffffffffffffffff1681526020019081526020015f20600201819055505f60055f3373ffffffffffffffffffffffffffffffffffffffff1673ffffffffffffffffffffffffffffffffffffffff1681526020019081526020015f206003018190555050505b5f60055f3373ffffffffffffffffffffffffffffffffffffffff1673ffffffffffffffffffffffffffffffffffffffff1681526020019081526020015f2060010160016101000a81548160ff021916908315150217905550565b5f60045f9054906101000a900473ffffffffffffffffffffffffffffffffffffffff1673ffffffffffffffffffffffffffffffffffffffff163373ffffffffffffffffffffffffffffffffffffffff16146116ab575f80fd5b5f6116b584611a42565b90505f6116c184611a42565b90506007548203611707576040517f08c379a00000000000000000000000000000000000000000000000000000000081526004016116fe906125d8565b60405180910390fd5b600754810361174b576040517f08c379a000000000000000000000000000000000000000000000000000000000815260040161174290612640565b60405180910390fd5b81600b8190555060095f8381526020019081526020015f2054600d8190555060095f8281526020019081526020015f205460095f8481526020019081526020015f205f82825461179b9190612255565b9250508190555060095f8381526020019081526020015f2054600c819055505f60095f8381526020019081526020015f2081905550819250505092915050565b5f60045f9054906101000a900473ffffffffffffffffffffffffffffffffffffffff16905090565b6009602052805f5260405f205f915090505481565b60045f9054906101000a900473ffffffffffffffffffffffffffffffffffffffff1673ffffffffffffffffffffffffffffffffffffffff163373ffffffffffffffffffffffffffffffffffffffff1614611870575f80fd5b5f8651116118b3576040517f08c379a00000000000000000000000000000000000000000000000000000000081526004016118aa906126a8565b60405180910390fd5b5f600a876040516118c49190612700565b90815260200160405180910390205414611913576040517f08c379a000000000000000000000000000000000000000000000000000000000815260040161190a90612760565b60405180910390fd5b5f6040518060c001604052808881526020018781526020018681526020018581526020018481526020018381525090505f6008805490509050600882908060018154018082558091505060019003905f5260205f2090600602015f909190919091505f820151815f019081611988919061291b565b50602082015181600101908161199e919061291b565b5060408201518160020190816119b4919061291b565b5060608201518160030190816119ca919061291b565b5060808201518160040190816119e0919061291b565b5060a08201518160050190816119f6919061291b565b50505080600a89604051611a0a9190612700565b9081526020016040518091039020819055505f60095f8381526020019081526020015f20819055505050505050505050565b60075481565b5f600a82604051611a539190612700565b9081526020016040518091039020549050919050565b5f81519050919050565b5f82825260208201905092915050565b5f5b83811015611aa0578082015181840152602081019050611a85565b5f8484015250505050565b5f601f19601f8301169050919050565b5f611ac582611a69565b611acf8185611a73565b9350611adf818560208601611a83565b611ae881611aab565b840191505092915050565b5f6020820190508181035f830152611b0b8184611abb565b905092915050565b5f819050919050565b611b2581611b13565b82525050565b5f602082019050611b3e5f830184611b1c565b92915050565b5f604051905090565b5f80fd5b5f80fd5b611b5e81611b13565b8114611b68575f80fd5b50565b5f81359050611b7981611b55565b92915050565b5f80fd5b5f80fd5b7f4e487b71000000000000000000000000000000000000000000000000000000005f52604160045260245ffd5b611bbd82611aab565b810181811067ffffffffffffffff82111715611bdc57611bdb611b87565b5b80604052505050565b5f611bee611b44565b9050611bfa8282611bb4565b919050565b5f67ffffffffffffffff821115611c1957611c18611b87565b5b611c2282611aab565b9050602081019050919050565b828183375f83830152505050565b5f611c4f611c4a84611bff565b611be5565b905082815260208101848484011115611c6b57611c6a611b83565b5b611c76848285611c2f565b509392505050565b5f82601f830112611c9257611c91611b7f565b5b8135611ca2848260208601611c3d565b91505092915050565b5f8060408385031215611cc157611cc0611b4d565b5b5f611cce85828601611b6b565b925050602083013567ffffffffffffffff811115611cef57611cee611b51565b5b611cfb85828601611c7e565b9150509250929050565b5f8115159050919050565b611d1981611d05565b82525050565b5f602082019050611d325f830184611d10565b92915050565b5f80fd5b5f80fd5b5f8083601f840112611d5557611d54611b7f565b5b8235905067ffffffffffffffff811115611d7257611d71611d38565b5b602083019150836001820283011115611d8e57611d8d611d3c565b5b9250929050565b5f8060208385031215611dab57611daa611b4d565b5b5f83013567ffffffffffffffff811115611dc857611dc7611b51565b5b611dd485828601611d40565b92509250509250929050565b5f60ff82169050919050565b611df581611de0565b82525050565b5f602082019050611e0e5f830184611dec565b92915050565b5f60208284031215611e2957611e28611b4d565b5b5f82013567ffffffffffffffff811115611e4657611e45611b51565b5b611e5284828501611c7e565b91505092915050565b5f60208284031215611e7057611e6f611b4d565b5b5f611e7d84828501611b6b565b91505092915050565b5f60c0820190508181035f830152611e9e8189611abb565b90508181036020830152611eb28188611abb565b90508181036040830152611ec68187611abb565b90508181036060830152611eda8186611abb565b90508181036080830152611eee8185611abb565b905081810360a0830152611f028184611abb565b9050979650505050505050565b5f73ffffffffffffffffffffffffffffffffffffffff82169050919050565b5f611f3882611f0f565b9050919050565b611f4881611f2e565b8114611f52575f80fd5b50565b5f81359050611f6381611f3f565b92915050565b5f60208284031215611f7e57611f7d611b4d565b5b5f611f8b84828501611f55565b91505092915050565b611f9d81611f2e565b82525050565b5f602082019050611fb65f830184611f94565b92915050565b5f8060408385031215611fd257611fd1611b4d565b5b5f83013567ffffffffffffffff811115611fef57611fee611b51565b5b611ffb85828601611c7e565b925050602083013567ffffffffffffffff81111561201c5761201b611b51565b5b61202885828601611c7e565b9150509250929050565b5f805f805f8060c0878903121561204c5761204b611b4d565b5b5f87013567ffffffffffffffff81111561206957612068611b51565b5b61207589828a01611c7e565b965050602087013567ffffffffffffffff81111561209657612095611b51565b5b6120a289828a01611c7e565b955050604087013567ffffffffffffffff8111156120c3576120c2611b51565b5b6120cf89828a01611c7e565b945050606087013567ffffffffffffffff8111156120f0576120ef611b51565b5b6120fc89828a01611c7e565b935050608087013567ffffffffffffffff81111561211d5761211c611b51565b5b61212989828a01611c7e565b92505060a087013567ffffffffffffffff81111561214a57612149611b51565b5b61215689828a01611c7e565b9150509295509295509295565b7f4e487b71000000000000000000000000000000000000000000000000000000005f52602260045260245ffd5b5f60028204905060018216806121a757607f821691505b6020821081036121ba576121b9612163565b5b50919050565b7f77696e6e6572207465616d20696e646578206e6f7420736574000000000000005f82015250565b5f6121f4601983611a73565b91506121ff826121c0565b602082019050919050565b5f6020820190508181035f830152612221816121e8565b9050919050565b7f4e487b71000000000000000000000000000000000000000000000000000000005f52601160045260245ffd5b5f61225f82611b13565b915061226a83611b13565b925082820190508082111561228257612281612228565b5b92915050565b7f596f75206861766520616c726561647920766f746564210000000000000000005f82015250565b5f6122bc601783611a73565b91506122c782612288565b602082019050919050565b5f6020820190508181035f8301526122e9816122b0565b9050919050565b7f4e6f7420656e6f75676820746f6b656e732100000000000000000000000000005f82015250565b5f612324601283611a73565b915061232f826122f0565b602082019050919050565b5f6020820190508181035f83015261235181612318565b9050919050565b7f496e76616c6964207465616d206e616d650000000000000000000000000000005f82015250565b5f61238c601183611a73565b915061239782612358565b602082019050919050565b5f6020820190508181035f8301526123b981612380565b9050919050565b5f6123ca82611b13565b91506123d583611b13565b92508282039050818111156123ed576123ec612228565b5b92915050565b7f596f75206861766520616c7265616479207265676973746572656400000000005f82015250565b5f612427601b83611a73565b9150612432826123f3565b602082019050919050565b5f6020820190508181035f8301526124548161241b565b9050919050565b7f4e6f7420656e6f75676820746f74616c537570706c79210000000000000000005f82015250565b5f61248f601783611a73565b915061249a8261245b565b602082019050919050565b5f6020820190508181035f8301526124bc81612483565b9050919050565b7f4e487b71000000000000000000000000000000000000000000000000000000005f52603260045260245ffd5b5f6124fa82611b13565b915061250583611b13565b925082820261251381611b13565b9150828204841483151761252a57612529612228565b5b5092915050565b7f4e487b71000000000000000000000000000000000000000000000000000000005f52601260045260245ffd5b5f61256882611b13565b915061257383611b13565b92508261258357612582612531565b5b828204905092915050565b7f496e76616c69642077696e6e6572207465616d206e616d6500000000000000005f82015250565b5f6125c2601883611a73565b91506125cd8261258e565b602082019050919050565b5f6020820190508181035f8301526125ef816125b6565b9050919050565b7f496e76616c6964206c6f736572207465616d206e616d650000000000000000005f82015250565b5f61262a601783611a73565b9150612635826125f6565b602082019050919050565b5f6020820190508181035f8301526126578161261e565b9050919050565b7f5465616d206e616d652063616e6e6f7420626520656d707479000000000000005f82015250565b5f612692601983611a73565b915061269d8261265e565b602082019050919050565b5f6020820190508181035f8301526126bf81612686565b9050919050565b5f81905092915050565b5f6126da82611a69565b6126e481856126c6565b93506126f4818560208601611a83565b80840191505092915050565b5f61270b82846126d0565b915081905092915050565b7f5465616d206e616d6520616c72656164792065786973747300000000000000005f82015250565b5f61274a601883611a73565b915061275582612716565b602082019050919050565b5f6020820190508181035f8301526127778161273e565b9050919050565b5f819050815f5260205f209050919050565b5f6020601f8301049050919050565b5f82821b905092915050565b5f600883026127da7fffffffffffffffffffffffffffffffffffffffffffffffffffffffffffffffff8261279f565b6127e4868361279f565b95508019841693508086168417925050509392505050565b5f819050919050565b5f61281f61281a61281584611b13565b6127fc565b611b13565b9050919050565b5f819050919050565b61283883612805565b61284c61284482612826565b8484546127ab565b825550505050565b5f90565b612860612854565b61286b81848461282f565b505050565b5b8181101561288e576128835f82612858565b600181019050612871565b5050565b601f8211156128d3576128a48161277e565b6128ad84612790565b810160208510156128bc578190505b6128d06128c885612790565b830182612870565b50505b505050565b5f82821c905092915050565b5f6128f35f19846008026128d8565b1980831691505092915050565b5f61290b83836128e4565b9150826002028217905092915050565b61292482611a69565b67ffffffffffffffff81111561293d5761293c611b87565b5b6129478254612190565b612952828285612892565b5f60209050601f831160018114612983575f8415612971578287015190505b61297b8582612900565b8655506129e2565b601f1984166129918661277e565b5f5b828110156129b857848901518255600182019150602085019450602081019050612993565b868310156129d557848901516129d1601f8916826128e4565b8355505b6001600288020188555050505b50505050505056fea26469706673582212207ca3f7b3863b81957586010670b8ddf1813ec1b6766407165b47a60a483ef89964736f6c63430008150033",
  "immutableReferences": {},
  "source": "// SPDX-License-Identifier: MIT\r\npragma solidity >=0.8.18 <0.9.0;\r\nimport './SetTeam.sol';\r\n// Vote.sol\r\n\r\ncontract Vote is SetTeam {\r\n    function vote(uint256 _amount, string memory _teamName) public returns(bool) {\r\n        // Check if the user have voetd\r\n        require(!userData[msg.sender].voted, \"You have already voted!\");\r\n        // Needs more balance than the amount you want to invest\r\n        require(balanceOf(msg.sender) >= _amount, \"Not enough tokens!\");\r\n\r\n        // get the index of the team which you want to vote \r\n        uint index = getTeamIndexByTeamName(_teamName);\r\n        require(index != INVALID_INDEX, \"Invalid team name\");\r\n\r\n        // transfers tokens to the team, voteBalance \r\n        userData[msg.sender].balance -= _amount;\r\n        teamWeight[index] += _amount;\r\n        userData[msg.sender].voteBalance += _amount; \r\n\r\n        // user have voted\r\n        userData[msg.sender].voted = true;\r\n        userData[msg.sender].teamIndex = index;\r\n        \r\n        return true;\r\n    }\r\n\r\n    // update winnerTeamIndex(in SetTeam.sol)\r\n    function gameEnd(string memory _teamNameWin, string memory _teamNameLose) public onlyOwner returns(uint) {\r\n        // get the winner team index\r\n        uint _winnerTeamIndex = getTeamIndexByTeamName(_teamNameWin);\r\n        uint _loserTeamIndex = getTeamIndexByTeamName(_teamNameLose);\r\n        require(_winnerTeamIndex != INVALID_INDEX, \"Invalid winner team name\");\r\n        require(_loserTeamIndex != INVALID_INDEX, \"Invalid loser team name\");\r\n\r\n        winnerTeamIndex = _winnerTeamIndex;\r\n        // Loser Team weight -> Winer Team weight\r\n        winnerTeamPureBalance = teamWeight[_winnerTeamIndex];      //  winner team   ( )\r\n        teamWeight[_winnerTeamIndex] += teamWeight[_loserTeamIndex];\r\n        bettingTotalBalance = teamWeight[_winnerTeamIndex];\r\n        teamWeight[_loserTeamIndex] = 0;\r\n\r\n        return _winnerTeamIndex;\r\n    }\r\n\r\n    //     voted  true \r\n    function returnBettingResult() public {\r\n        require(winnerTeamIndex != INVALID_INDEX, \"winner team index not set\");\r\n\r\n        if (getUserVotedTeamIndex(msg.sender) == winnerTeamIndex) {\r\n            uint ratio = voteBalanceOf(msg.sender) * bettingTotalBalance / winnerTeamPureBalance; //  \r\n            uint amountToReturn = ratio * bettingTotalBalance;\r\n\r\n            userData[msg.sender].balance += amountToReturn;\r\n            teamWeight[winnerTeamIndex] -= amountToReturn;\r\n\r\n            // user betting  data \r\n            userData[msg.sender].teamIndex = INVALID_INDEX;\r\n            userData[msg.sender].voteBalance = 0;\r\n        }\r\n\r\n        //       betting    \r\n        userData[msg.sender].voted = false;\r\n    }\r\n    //     (ex.  )\r\n    //   totalSupply \r\n    // winner team weight = 0\r\n    function returnBettingResultOver() public onlyOwner {\r\n        require(winnerTeamIndex != INVALID_INDEX, \"winner team index not set\");\r\n        totalSupply += teamWeight[winnerTeamIndex];\r\n        teamWeight[winnerTeamIndex] = 0;\r\n    }\r\n}",
  "sourcePath": "C:\\Users\\qww93\\Desktop\\vote_dapp\\vote-lck\\src\\contracts\\Vote.sol",
  "compiler": {
    "name": "solc",
    "version": "0.8.21+commit.d9974bed.Emscripten.clang"
  },
  "schemaVersion": "3.4.14",
  "updatedAt": "2023-07-26T12:40:28.114Z",
  "devdoc": {
    "kind": "dev",
    "methods": {},
    "version": 1
  },
  "userdoc": {
    "kind": "user",
    "methods": {},
    "version": 1
  }
}