{
  "contractName": "Vote",
  "abi": [
    {
      "constant": true,
      "inputs": [
        {
          "internalType": "address",
          "name": "_address",
          "type": "address"
        }
      ],
      "name": "balanceOf",
      "outputs": [
        {
          "internalType": "uint256",
          "name": "",
          "type": "uint256"
        }
      ],
      "payable": false,
      "stateMutability": "view",
      "type": "function"
    },
    {
      "constant": true,
      "inputs": [],
      "name": "decimals",
      "outputs": [
        {
          "internalType": "uint8",
          "name": "",
          "type": "uint8"
        }
      ],
      "payable": false,
      "stateMutability": "view",
      "type": "function"
    },
    {
      "constant": true,
      "inputs": [
        {
          "internalType": "string",
          "name": "_teamName",
          "type": "string"
        }
      ],
      "name": "getTeamDataByTeamName",
      "outputs": [
        {
          "internalType": "string",
          "name": "",
          "type": "string"
        },
        {
          "internalType": "string",
          "name": "",
          "type": "string"
        },
        {
          "internalType": "string",
          "name": "",
          "type": "string"
        },
        {
          "internalType": "string",
          "name": "",
          "type": "string"
        },
        {
          "internalType": "string",
          "name": "",
          "type": "string"
        },
        {
          "internalType": "string",
          "name": "",
          "type": "string"
        }
      ],
      "payable": false,
      "stateMutability": "view",
      "type": "function"
    },
    {
      "constant": true,
      "inputs": [
        {
          "internalType": "string",
          "name": "_teamName",
          "type": "string"
        }
      ],
      "name": "getTeamWeightByTeamName",
      "outputs": [
        {
          "internalType": "uint256",
          "name": "",
          "type": "uint256"
        }
      ],
      "payable": false,
      "stateMutability": "view",
      "type": "function"
    },
    {
      "constant": true,
      "inputs": [
        {
          "internalType": "address",
          "name": "_address",
          "type": "address"
        }
      ],
      "name": "getUserVotedTeamIndex",
      "outputs": [
        {
          "internalType": "uint256",
          "name": "",
          "type": "uint256"
        }
      ],
      "payable": false,
      "stateMutability": "view",
      "type": "function"
    },
    {
      "constant": false,
      "inputs": [
        {
          "internalType": "address",
          "name": "_address",
          "type": "address"
        }
      ],
      "name": "giveRightToVote",
      "outputs": [
        {
          "internalType": "bool",
          "name": "",
          "type": "bool"
        }
      ],
      "payable": false,
      "stateMutability": "nonpayable",
      "type": "function"
    },
    {
      "constant": false,
      "inputs": [],
      "name": "logIn",
      "outputs": [],
      "payable": false,
      "stateMutability": "nonpayable",
      "type": "function"
    },
    {
      "constant": true,
      "inputs": [],
      "name": "name",
      "outputs": [
        {
          "internalType": "string",
          "name": "",
          "type": "string"
        }
      ],
      "payable": false,
      "stateMutability": "view",
      "type": "function"
    },
    {
      "constant": true,
      "inputs": [],
      "name": "owner",
      "outputs": [
        {
          "internalType": "address",
          "name": "",
          "type": "address"
        }
      ],
      "payable": false,
      "stateMutability": "view",
      "type": "function"
    },
    {
      "constant": false,
      "inputs": [
        {
          "internalType": "string",
          "name": "_teamName",
          "type": "string"
        },
        {
          "internalType": "string",
          "name": "_top",
          "type": "string"
        },
        {
          "internalType": "string",
          "name": "_jug",
          "type": "string"
        },
        {
          "internalType": "string",
          "name": "_mid",
          "type": "string"
        },
        {
          "internalType": "string",
          "name": "_adc",
          "type": "string"
        },
        {
          "internalType": "string",
          "name": "_sup",
          "type": "string"
        }
      ],
      "name": "setTeam",
      "outputs": [],
      "payable": false,
      "stateMutability": "nonpayable",
      "type": "function"
    },
    {
      "constant": true,
      "inputs": [],
      "name": "showOwner",
      "outputs": [
        {
          "internalType": "address",
          "name": "",
          "type": "address"
        }
      ],
      "payable": false,
      "stateMutability": "view",
      "type": "function"
    },
    {
      "constant": true,
      "inputs": [],
      "name": "symbol",
      "outputs": [
        {
          "internalType": "string",
          "name": "",
          "type": "string"
        }
      ],
      "payable": false,
      "stateMutability": "view",
      "type": "function"
    },
    {
      "constant": true,
      "inputs": [
        {
          "internalType": "uint256",
          "name": "",
          "type": "uint256"
        }
      ],
      "name": "teamWeight",
      "outputs": [
        {
          "internalType": "uint256",
          "name": "",
          "type": "uint256"
        }
      ],
      "payable": false,
      "stateMutability": "view",
      "type": "function"
    },
    {
      "constant": true,
      "inputs": [
        {
          "internalType": "uint256",
          "name": "",
          "type": "uint256"
        }
      ],
      "name": "teams",
      "outputs": [
        {
          "internalType": "string",
          "name": "teamName",
          "type": "string"
        },
        {
          "internalType": "string",
          "name": "top",
          "type": "string"
        },
        {
          "internalType": "string",
          "name": "jug",
          "type": "string"
        },
        {
          "internalType": "string",
          "name": "mid",
          "type": "string"
        },
        {
          "internalType": "string",
          "name": "adc",
          "type": "string"
        },
        {
          "internalType": "string",
          "name": "sup",
          "type": "string"
        }
      ],
      "payable": false,
      "stateMutability": "view",
      "type": "function"
    },
    {
      "constant": true,
      "inputs": [],
      "name": "totalSupply",
      "outputs": [
        {
          "internalType": "uint256",
          "name": "",
          "type": "uint256"
        }
      ],
      "payable": false,
      "stateMutability": "view",
      "type": "function"
    },
    {
      "constant": true,
      "inputs": [
        {
          "internalType": "address",
          "name": "_address",
          "type": "address"
        }
      ],
      "name": "voteBalanceOf",
      "outputs": [
        {
          "internalType": "uint256",
          "name": "",
          "type": "uint256"
        }
      ],
      "payable": false,
      "stateMutability": "view",
      "type": "function"
    },
    {
      "constant": false,
      "inputs": [
        {
          "internalType": "uint256",
          "name": "_amount",
          "type": "uint256"
        },
        {
          "internalType": "string",
          "name": "_teamName",
          "type": "string"
        }
      ],
      "name": "vote",
      "outputs": [
        {
          "internalType": "bool",
          "name": "",
          "type": "bool"
        }
      ],
      "payable": false,
      "stateMutability": "nonpayable",
      "type": "function"
    },
    {
      "constant": false,
      "inputs": [
        {
          "internalType": "string",
          "name": "_teamNameWin",
          "type": "string"
        },
        {
          "internalType": "string",
          "name": "_teamNameLose",
          "type": "string"
        }
      ],
      "name": "gameEnd",
      "outputs": [
        {
          "internalType": "uint256",
          "name": "",
          "type": "uint256"
        }
      ],
      "payable": false,
      "stateMutability": "nonpayable",
      "type": "function"
    },
    {
      "constant": false,
      "inputs": [],
      "name": "returnBettingResult",
      "outputs": [
        {
          "internalType": "bool",
          "name": "",
          "type": "bool"
        }
      ],
      "payable": false,
      "stateMutability": "nonpayable",
      "type": "function"
    }
  ],
  "bytecode": "0x608060405269d3c21bcecceda10000006000556012600160006101000a81548160ff021916908360ff1602179055506040518060400160405280600981526020017f6c6f6c20746f6b656e0000000000000000000000000000000000000000000000815250600290805190602001906200007b9291906200013a565b506040518060400160405280600281526020017f6c7400000000000000000000000000000000000000000000000000000000000081525060039080519060200190620000c99291906200013a565b507fffffffffffffffffffffffffffffffffffffffffffffffffffffffffffffffff6009556000600a5533600460006101000a81548173ffffffffffffffffffffffffffffffffffffffff021916908373ffffffffffffffffffffffffffffffffffffffff160217905550620001e9565b828054600181600116156101000203166002900490600052602060002090601f016020900481019282601f106200017d57805160ff1916838001178555620001ae565b82800160010185558215620001ae579182015b82811115620001ad57825182559160200191906001019062000190565b5b509050620001bd9190620001c1565b5090565b620001e691905b80821115620001e2576000816000905550600101620001c8565b5090565b90565b61294780620001f96000396000f3fe608060405234801561001057600080fd5b50600436106101215760003560e01c80638262bafc116100ad578063a8285fdb11610071578063a8285fdb14610b61578063d7e80eee14610b83578063ded9468814610ce9578063dfb826b114610d33578063ed5225ef14610d7557610121565b80638262bafc146106d257806384ab8bb8146109e05780638da5cb5b14610a3857806395d89b4114610a825780639e7b8d6114610b0557610121565b8063313ce567116100f4578063313ce56714610331578063377b47a3146103555780633ed2b77a1461035f578063548e0ae51461062257806370a082311461067a57610121565b806306fdde031461012657806318160ddd146101a957806324108475146101c75780632d82ee8b146102a4575b600080fd5b61012e611123565b6040518080602001828103825283818151815260200191508051906020019080838360005b8381101561016e578082015181840152602081019050610153565b50505050905090810190601f16801561019b5780820380516001836020036101000a031916815260200191505b509250505060405180910390f35b6101b16111c1565b6040518082815260200191505060405180910390f35b61028a600480360360408110156101dd57600080fd5b81019080803590602001909291908035906020019064010000000081111561020457600080fd5b82018360208201111561021657600080fd5b8035906020019184600183028401116401000000008311171561023857600080fd5b91908080601f016020809104026020016040519081016040528093929190818152602001838380828437600081840152601f19601f8201169050808301925050505050505091929192905050506111c7565b604051808215151515815260200191505060405180910390f35b61031b600480360360208110156102ba57600080fd5b81019080803590602001906401000000008111156102d757600080fd5b8201836020820111156102e957600080fd5b8035906020019184600183028401116401000000008311171561030b57600080fd5b909192939192939050505061141c565b6040518082815260200191505060405180910390f35b610339611486565b604051808260ff1660ff16815260200191505060405180910390f35b61035d611499565b005b61038b6004803603602081101561037557600080fd5b8101908080359060200190929190505050611740565b6040518080602001806020018060200180602001806020018060200187810387528d818151815260200191508051906020019080838360005b838110156103df5780820151818401526020810190506103c4565b50505050905090810190601f16801561040c5780820380516001836020036101000a031916815260200191505b5087810386528c818151815260200191508051906020019080838360005b8381101561044557808201518184015260208101905061042a565b50505050905090810190601f1680156104725780820380516001836020036101000a031916815260200191505b5087810385528b818151815260200191508051906020019080838360005b838110156104ab578082015181840152602081019050610490565b50505050905090810190601f1680156104d85780820380516001836020036101000a031916815260200191505b5087810384528a818151815260200191508051906020019080838360005b838110156105115780820151818401526020810190506104f6565b50505050905090810190601f16801561053e5780820380516001836020036101000a031916815260200191505b50878103835289818151815260200191508051906020019080838360005b8381101561057757808201518184015260208101905061055c565b50505050905090810190601f1680156105a45780820380516001836020036101000a031916815260200191505b50878103825288818151815260200191508051906020019080838360005b838110156105dd5780820151818401526020810190506105c2565b50505050905090810190601f16801561060a5780820380516001836020036101000a031916815260200191505b509c5050505050505050505050505060405180910390f35b6106646004803603602081101561063857600080fd5b81019080803573ffffffffffffffffffffffffffffffffffffffff169060200190929190505050611b19565b6040518082815260200191505060405180910390f35b6106bc6004803603602081101561069057600080fd5b81019080803573ffffffffffffffffffffffffffffffffffffffff169060200190929190505050611b65565b6040518082815260200191505060405180910390f35b610749600480360360208110156106e857600080fd5b810190808035906020019064010000000081111561070557600080fd5b82018360208201111561071757600080fd5b8035906020019184600183028401116401000000008311171561073957600080fd5b9091929391929390505050611bb1565b6040518080602001806020018060200180602001806020018060200187810387528d818151815260200191508051906020019080838360005b8381101561079d578082015181840152602081019050610782565b50505050905090810190601f1680156107ca5780820380516001836020036101000a031916815260200191505b5087810386528c818151815260200191508051906020019080838360005b838110156108035780820151818401526020810190506107e8565b50505050905090810190601f1680156108305780820380516001836020036101000a031916815260200191505b5087810385528b818151815260200191508051906020019080838360005b8381101561086957808201518184015260208101905061084e565b50505050905090810190601f1680156108965780820380516001836020036101000a031916815260200191505b5087810384528a818151815260200191508051906020019080838360005b838110156108cf5780820151818401526020810190506108b4565b50505050905090810190601f1680156108fc5780820380516001836020036101000a031916815260200191505b50878103835289818151815260200191508051906020019080838360005b8381101561093557808201518184015260208101905061091a565b50505050905090810190601f1680156109625780820380516001836020036101000a031916815260200191505b50878103825288818151815260200191508051906020019080838360005b8381101561099b578082015181840152602081019050610980565b50505050905090810190601f1680156109c85780820380516001836020036101000a031916815260200191505b509c5050505050505050505050505060405180910390f35b610a22600480360360208110156109f657600080fd5b81019080803573ffffffffffffffffffffffffffffffffffffffff1690602001909291905050506120e5565b6040518082815260200191505060405180910390f35b610a40612131565b604051808273ffffffffffffffffffffffffffffffffffffffff1673ffffffffffffffffffffffffffffffffffffffff16815260200191505060405180910390f35b610a8a612157565b6040518080602001828103825283818151815260200191508051906020019080838360005b83811015610aca578082015181840152602081019050610aaf565b50505050905090810190601f168015610af75780820380516001836020036101000a031916815260200191505b509250505060405180910390f35b610b4760048036036020811015610b1b57600080fd5b81019080803573ffffffffffffffffffffffffffffffffffffffff1690602001909291905050506121f5565b604051808215151515815260200191505060405180910390f35b610b6961231e565b604051808215151515815260200191505060405180910390f35b610cd360048036036040811015610b9957600080fd5b8101908080359060200190640100000000811115610bb657600080fd5b820183602082011115610bc857600080fd5b80359060200191846001830284011164010000000083111715610bea57600080fd5b91908080601f016020809104026020016040519081016040528093929190818152602001838380828437600081840152601f19601f82011690508083019250505050505050919291929080359060200190640100000000811115610c4d57600080fd5b820183602082011115610c5f57600080fd5b80359060200191846001830284011164010000000083111715610c8157600080fd5b91908080601f016020809104026020016040519081016040528093929190818152602001838380828437600081840152601f19601f820116905080830192505050505050509192919290505050612400565b6040518082815260200191505060405180910390f35b610cf1612549565b604051808273ffffffffffffffffffffffffffffffffffffffff1673ffffffffffffffffffffffffffffffffffffffff16815260200191505060405180910390f35b610d5f60048036036020811015610d4957600080fd5b8101908080359060200190929190505050612573565b6040518082815260200191505060405180910390f35b611121600480360360c0811015610d8b57600080fd5b8101908080359060200190640100000000811115610da857600080fd5b820183602082011115610dba57600080fd5b80359060200191846001830284011164010000000083111715610ddc57600080fd5b91908080601f016020809104026020016040519081016040528093929190818152602001838380828437600081840152601f19601f82011690508083019250505050505050919291929080359060200190640100000000811115610e3f57600080fd5b820183602082011115610e5157600080fd5b80359060200191846001830284011164010000000083111715610e7357600080fd5b91908080601f016020809104026020016040519081016040528093929190818152602001838380828437600081840152601f19601f82011690508083019250505050505050919291929080359060200190640100000000811115610ed657600080fd5b820183602082011115610ee857600080fd5b80359060200191846001830284011164010000000083111715610f0a57600080fd5b91908080601f016020809104026020016040519081016040528093929190818152602001838380828437600081840152601f19601f82011690508083019250505050505050919291929080359060200190640100000000811115610f6d57600080fd5b820183602082011115610f7f57600080fd5b80359060200191846001830284011164010000000083111715610fa157600080fd5b91908080601f016020809104026020016040519081016040528093929190818152602001838380828437600081840152601f19601f8201169050808301925050505050505091929192908035906020019064010000000081111561100457600080fd5b82018360208201111561101657600080fd5b8035906020019184600183028401116401000000008311171561103857600080fd5b91908080601f016020809104026020016040519081016040528093929190818152602001838380828437600081840152601f19601f8201169050808301925050505050505091929192908035906020019064010000000081111561109b57600080fd5b8201836020820111156110ad57600080fd5b803590602001918460018302840111640100000000831117156110cf57600080fd5b91908080601f016020809104026020016040519081016040528093929190818152602001838380828437600081840152601f19601f82011690508083019250505050505050919291929050505061258b565b005b60028054600181600116156101000203166002900480601f0160208091040260200160405190810160405280929190818152602001828054600181600116156101000203166002900480156111b95780601f1061118e576101008083540402835291602001916111b9565b820191906000526020600020905b81548152906001019060200180831161119c57829003601f168201915b505050505081565b60005481565b6000600560003373ffffffffffffffffffffffffffffffffffffffff1673ffffffffffffffffffffffffffffffffffffffff16815260200190815260200160002060010160019054906101000a900460ff161561122357600080fd5b8261122d33611b65565b10156112a1576040517f08c379a00000000000000000000000000000000000000000000000000000000081526004018080602001828103825260128152602001807f4e6f7420656e6f75676820746f6b656e7321000000000000000000000000000081525060200191505060405180910390fd5b60006112ac8361274e565b905083600560003373ffffffffffffffffffffffffffffffffffffffff1673ffffffffffffffffffffffffffffffffffffffff1681526020019081526020016000206000016000828254039250508190555083600860008381526020019081526020016000206000828254019250508190555083600560003373ffffffffffffffffffffffffffffffffffffffff1673ffffffffffffffffffffffffffffffffffffffff168152602001908152602001600020600301600082825401925050819055506001600560003373ffffffffffffffffffffffffffffffffffffffff1673ffffffffffffffffffffffffffffffffffffffff16815260200190815260200160002060010160016101000a81548160ff02191690831515021790555080600560003373ffffffffffffffffffffffffffffffffffffffff1673ffffffffffffffffffffffffffffffffffffffff16815260200190815260200160002060020181905550600191505092915050565b60006008600061146f85858080601f016020809104026020016040519081016040528093929190818152602001838380828437600081840152601f19601f8201169050808301925050505050505061274e565b815260200190815260200160002054905092915050565b600160009054906101000a900460ff1681565b600660003373ffffffffffffffffffffffffffffffffffffffff1673ffffffffffffffffffffffffffffffffffffffff16815260200190815260200160002060009054906101000a900460ff1615611559576040517f08c379a000000000000000000000000000000000000000000000000000000000815260040180806020018281038252601b8152602001807f596f75206861766520616c72656164792072656769737465726564000000000081525060200191505060405180910390fd5b678ac7230489e8000060005410156115d9576040517f08c379a00000000000000000000000000000000000000000000000000000000081526004018080602001828103825260178152602001807f4e6f7420656e6f75676820746f74616c537570706c792100000000000000000081525060200191505060405180910390fd5b6001600660003373ffffffffffffffffffffffffffffffffffffffff1673ffffffffffffffffffffffffffffffffffffffff16815260200190815260200160002060006101000a81548160ff0219169083151502179055506040518060a00160405280678ac7230489e8000081526020016001151581526020016001151581526020017fffffffffffffffffffffffffffffffffffffffffffffffffffffffffffffffff81526020016000815250600560003373ffffffffffffffffffffffffffffffffffffffff1673ffffffffffffffffffffffffffffffffffffffff1681526020019081526020016000206000820151816000015560208201518160010160006101000a81548160ff02191690831515021790555060408201518160010160016101000a81548160ff0219169083151502179055506060820151816002015560808201518160030155905050678ac7230489e800006000808282540392505081905550565b6007818154811061174d57fe5b9060005260206000209060060201600091509050806000018054600181600116156101000203166002900480601f0160208091040260200160405190810160405280929190818152602001828054600181600116156101000203166002900480156117f95780601f106117ce576101008083540402835291602001916117f9565b820191906000526020600020905b8154815290600101906020018083116117dc57829003601f168201915b505050505090806001018054600181600116156101000203166002900480601f0160208091040260200160405190810160405280929190818152602001828054600181600116156101000203166002900480156118975780601f1061186c57610100808354040283529160200191611897565b820191906000526020600020905b81548152906001019060200180831161187a57829003601f168201915b505050505090806002018054600181600116156101000203166002900480601f0160208091040260200160405190810160405280929190818152602001828054600181600116156101000203166002900480156119355780601f1061190a57610100808354040283529160200191611935565b820191906000526020600020905b81548152906001019060200180831161191857829003601f168201915b505050505090806003018054600181600116156101000203166002900480601f0160208091040260200160405190810160405280929190818152602001828054600181600116156101000203166002900480156119d35780601f106119a8576101008083540402835291602001916119d3565b820191906000526020600020905b8154815290600101906020018083116119b657829003601f168201915b505050505090806004018054600181600116156101000203166002900480601f016020809104026020016040519081016040528092919081815260200182805460018160011615610100020316600290048015611a715780601f10611a4657610100808354040283529160200191611a71565b820191906000526020600020905b815481529060010190602001808311611a5457829003601f168201915b505050505090806005018054600181600116156101000203166002900480601f016020809104026020016040519081016040528092919081815260200182805460018160011615610100020316600290048015611b0f5780601f10611ae457610100808354040283529160200191611b0f565b820191906000526020600020905b815481529060010190602001808311611af257829003601f168201915b5050505050905086565b6000600560008373ffffffffffffffffffffffffffffffffffffffff1673ffffffffffffffffffffffffffffffffffffffff168152602001908152602001600020600201549050919050565b6000600560008373ffffffffffffffffffffffffffffffffffffffff1673ffffffffffffffffffffffffffffffffffffffff168152602001908152602001600020600001549050919050565b6060806060806060806000611c0989898080601f016020809104026020016040519081016040528093929190818152602001838380828437600081840152601f19601f8201169050808301925050505050505061274e565b90507fffffffffffffffffffffffffffffffffffffffffffffffffffffffffffffffff811415611ca1576040517f08c379a000000000000000000000000000000000000000000000000000000000815260040180806020018281038252600a8152602001807f57726f6e67206e616d650000000000000000000000000000000000000000000081525060200191505060405180910390fd5b611ca9612837565b60078281548110611cb657fe5b90600052602060002090600602016040518060c0016040529081600082018054600181600116156101000203166002900480601f016020809104026020016040519081016040528092919081815260200182805460018160011615610100020316600290048015611d685780601f10611d3d57610100808354040283529160200191611d68565b820191906000526020600020905b815481529060010190602001808311611d4b57829003601f168201915b50505050508152602001600182018054600181600116156101000203166002900480601f016020809104026020016040519081016040528092919081815260200182805460018160011615610100020316600290048015611e0a5780601f10611ddf57610100808354040283529160200191611e0a565b820191906000526020600020905b815481529060010190602001808311611ded57829003601f168201915b50505050508152602001600282018054600181600116156101000203166002900480601f016020809104026020016040519081016040528092919081815260200182805460018160011615610100020316600290048015611eac5780601f10611e8157610100808354040283529160200191611eac565b820191906000526020600020905b815481529060010190602001808311611e8f57829003601f168201915b50505050508152602001600382018054600181600116156101000203166002900480601f016020809104026020016040519081016040528092919081815260200182805460018160011615610100020316600290048015611f4e5780601f10611f2357610100808354040283529160200191611f4e565b820191906000526020600020905b815481529060010190602001808311611f3157829003601f168201915b50505050508152602001600482018054600181600116156101000203166002900480601f016020809104026020016040519081016040528092919081815260200182805460018160011615610100020316600290048015611ff05780601f10611fc557610100808354040283529160200191611ff0565b820191906000526020600020905b815481529060010190602001808311611fd357829003601f168201915b50505050508152602001600582018054600181600116156101000203166002900480601f0160208091040260200160405190810160405280929190818152602001828054600181600116156101000203166002900480156120925780601f1061206757610100808354040283529160200191612092565b820191906000526020600020905b81548152906001019060200180831161207557829003601f168201915b5050505050815250509050806000015181602001518260400151836060015184608001518560a0015185955084945083935082925081915080905097509750975097509750975050509295509295509295565b6000600560008373ffffffffffffffffffffffffffffffffffffffff1673ffffffffffffffffffffffffffffffffffffffff168152602001908152602001600020600301549050919050565b600460009054906101000a900473ffffffffffffffffffffffffffffffffffffffff1681565b60038054600181600116156101000203166002900480601f0160208091040260200160405190810160405280929190818152602001828054600181600116156101000203166002900480156121ed5780601f106121c2576101008083540402835291602001916121ed565b820191906000526020600020905b8154815290600101906020018083116121d057829003601f168201915b505050505081565b6000600460009054906101000a900473ffffffffffffffffffffffffffffffffffffffff1673ffffffffffffffffffffffffffffffffffffffff163373ffffffffffffffffffffffffffffffffffffffff16146122ba576040517f08c379a000000000000000000000000000000000000000000000000000000000815260040180806020018281038252601b8152602001807f4f6e6c79206f776e65722063616e20676976652061636365657373000000000081525060200191505060405180910390fd5b6000600560008473ffffffffffffffffffffffffffffffffffffffff1673ffffffffffffffffffffffffffffffffffffffff16815260200190815260200160002060010160016101000a81548160ff02191690831515021790555060019050919050565b60007fffffffffffffffffffffffffffffffffffffffffffffffffffffffffffffffff600954141561234f57600080fd5b60095461235b33611b19565b1461236557600080fd5b6000600a54612373336120e5565b8161237a57fe5b04905080600a5402600560003373ffffffffffffffffffffffffffffffffffffffff1673ffffffffffffffffffffffffffffffffffffffff1681526020019081526020016000206000016000828254019250508190555080600a540260086000600954815260200190815260200160002060008282540392505081905550600191505090565b6000600460009054906101000a900473ffffffffffffffffffffffffffffffffffffffff1673ffffffffffffffffffffffffffffffffffffffff163373ffffffffffffffffffffffffffffffffffffffff161461245c57600080fd5b60006124678461274e565b905060006124748461274e565b90507fffffffffffffffffffffffffffffffffffffffffffffffffffffffffffffffff8214156124a357600080fd5b7fffffffffffffffffffffffffffffffffffffffffffffffffffffffffffffffff8114156124d057600080fd5b816009819055506008600083815260200190815260200160002054600a819055506008600082815260200190815260200160002054600860008481526020019081526020016000206000828254019250508190555060006008600083815260200190815260200160002081905550819250505092915050565b6000600460009054906101000a900473ffffffffffffffffffffffffffffffffffffffff16905090565b60086020528060005260406000206000915090505481565b600460009054906101000a900473ffffffffffffffffffffffffffffffffffffffff1673ffffffffffffffffffffffffffffffffffffffff163373ffffffffffffffffffffffffffffffffffffffff16146125e557600080fd5b7fffffffffffffffffffffffffffffffffffffffffffffffffffffffffffffffff61260f8761274e565b141561261a57600080fd5b60076040518060c001604052808881526020018781526020018681526020018581526020018481526020018381525090806001815401808255809150509060018203906000526020600020906006020160009091929091909150600082015181600001908051906020019061269092919061286d565b5060208201518160010190805190602001906126ad92919061286d565b5060408201518160020190805190602001906126ca92919061286d565b5060608201518160030190805190602001906126e792919061286d565b50608082015181600401908051906020019061270492919061286d565b5060a082015181600501908051906020019061272192919061286d565b505050506000600860006127348961274e565b815260200190815260200160002081905550505050505050565b600080600090505b60078054905081101561280d5782805190602001206007828154811061277857fe5b906000526020600020906006020160000160405180828054600181600116156101000203166002900480156127e45780601f106127c25761010080835404028352918201916127e4565b820191906000526020600020905b8154815290600101906020018083116127d0575b5050915050604051809103902014156128005780915050612832565b8080600101915050612756565b507fffffffffffffffffffffffffffffffffffffffffffffffffffffffffffffffff90505b919050565b6040518060c001604052806060815260200160608152602001606081526020016060815260200160608152602001606081525090565b828054600181600116156101000203166002900490600052602060002090601f016020900481019282601f106128ae57805160ff19168380011785556128dc565b828001600101855582156128dc579182015b828111156128db5782518255916020019190600101906128c0565b5b5090506128e991906128ed565b5090565b61290f91905b8082111561290b5760008160009055506001016128f3565b5090565b9056fea265627a7a7231582041866e5acd28ca9e36561a674a5e1b77d0ee99ab39501c8c8176a13b6188edf764736f6c63430005110032",
  "source": "// SPDX-License-Identifier: MIT\r\npragma solidity >=0.4.22 <0.9.0;\r\nimport './SetTeam.sol';\r\n// Vote.sol\r\n\r\ncontract Vote is SetTeam {\r\n    function vote(uint256 _amount, string memory _teamName) public returns(bool) {\r\n        // Check if the user have voetd\r\n        require(!userData[msg.sender].voted);\r\n        // Needs more balance than the amount you want to invest\r\n        require(balanceOf(msg.sender) >= _amount, 'Not enough tokens!');\r\n\r\n        // get the index of the team which you want to vote \r\n        uint index = getTeamIndexByTeamName(_teamName);\r\n        // transfers tokens to the team, voteBalance \r\n        userData[msg.sender].balance -= _amount;\r\n        teamWeight[index] += _amount;\r\n        userData[msg.sender].voteBalance += _amount; \r\n\r\n        // user have voted\r\n        userData[msg.sender].voted = true;\r\n        userData[msg.sender].teamIndex = index;\r\n        \r\n        return true;\r\n    }\r\n\r\n    // update winnerTeamIndex(in SetTeam.sol)\r\n    function gameEnd(string memory _teamNameWin, string memory _teamNameLose) public onlyOwner returns(uint) {\r\n        // get the winner team index\r\n        uint _winnerTeamIndex = getTeamIndexByTeamName(_teamNameWin);\r\n        uint _LoserTeamIndex = getTeamIndexByTeamName(_teamNameLose);\r\n        require(_winnerTeamIndex != uint(-1));\r\n        require(_LoserTeamIndex != uint(-1));\r\n\r\n        winnerTeamIndex = _winnerTeamIndex;\r\n        // Loser Team weight -> Winer Team weight\r\n        winnerTeamTotalBalance = teamWeight[_winnerTeamIndex];      // update winner Team Total Balance for function returnBettingResult()\r\n        teamWeight[_winnerTeamIndex] += teamWeight[_LoserTeamIndex];\r\n        teamWeight[_LoserTeamIndex] = 0;\r\n\r\n        return _winnerTeamIndex;\r\n    }\r\n\r\n    function returnBettingResult() public returns(bool) {\r\n        require(winnerTeamIndex != uint(-1));                               // not default(after function gameEnd)\r\n        require(getUserVotedTeamIndex(msg.sender) == winnerTeamIndex);      // check the team which user have voted\r\n        \r\n        uint ratio = voteBalanceOf(msg.sender) / winnerTeamTotalBalance;\r\n        userData[msg.sender].balance += winnerTeamTotalBalance * ratio;             // return betting balance by ratio\r\n        teamWeight[winnerTeamIndex] -= winnerTeamTotalBalance * ratio;     // from teamWeight[_winnerTeamIndex]\r\n        return true;\r\n    }\r\n}",
  "sourcePath": "C:\\Users\\qww93\\Desktop\\vote_dapp\\vote-lck\\src\\contracts\\Vote.sol",
  "compiler": {
    "name": "solc",
    "version": "0.5.17+commit.d19bba13.Emscripten.clang"
  },
  "schemaVersion": "3.4.14",
  "updatedAt": "2023-07-25T06:35:00.151Z",
  "networkType": "ethereum",
  "devdoc": {
    "methods": {}
  },
  "userdoc": {
    "methods": {}
  }
}